:020000040800F2
:1000000000000220B126000801270008871100081F
:1000100001270008891100080127000800000000DE
:1000200000000000000000000000000001270008A0
:100030000127000800000000012700080127000830
:1000400001270008012700080127000801270008F0
:100050000127000801270008A7110008A9110008BE
:10006000AB110008AD110008AF110008012700080E
:1000700001270008012700080127000801270008C0
:10008000E9200008012700080127000801270008CF
:10009000012700088511000801270008B111000898
:1000A0009B1100089D1100089F11000801270008FE
:1000B0008F11000891110008931100080127000812
:1000C0000127000801270008012700080127000870
:1000D0000127000801270008012700080127000860
:1000E000B31100088D11000801270008A1110008B4
:1000F000A3110008A5110008012700080127000826
:1001000001270008012700089511000801270008B1
:10011000012700080127000897110008991100081D
:100120008B1100080127000801270008012700089B
:10013000012700080000000000000000012700085F
:1001400001270008012700080127000801270008EF
:1001500001270008012700080127000801270008DF
:1001600001270008012700080127000801270008CF
:10017000012700080127000800000000000000001F
:08018000012700080127000817
:1001880010B5054C237833B9044B13B10448AFF3C9
:1001980000800123237010BD3805002000000000F6
:1001A8006C2F000808B5034B1BB103490348AFF394
:1001B800008008BD000000003C0500206C2F0008EE
:1001C800034613F8012B002AFBD1181A013870478F
:1001D80081F0004102E000BF83F0004330B54FEAF0
:1001E80041044FEA430594EA050F08BF90EA020F5D
:1001F8001FBF54EA000C55EA020C7FEA645C7FEAF0
:10020800655C00F0E2804FEA5454D4EB5555B8BF12
:100218006D420CDD2C4480EA020281EA030382EA83
:10022800000083EA010180EA020281EA0303362D15
:1002380088BF30BD11F0004F4FEA01314FF4801CE8
:100248004CEA113102D0404261EB410113F0004FFA
:100258004FEA03334CEA133302D0524263EB4303B1
:1002680094EA050F00F0A780A4F10104D5F1200E4F
:100278000DDB02FA0EFC22FA05F2801841F10001AA
:1002880003FA0EF2801843FA05F359410EE0A5F17E
:1002980020050EF1200E012A03FA0EFC28BF4CF0AF
:1002A800020C43FA05F3C01851EBE37101F0004565
:1002B80007D54FF0000EDCF1000C7EEB00006EEB72
:1002C8000101B1F5801F1BD3B1F5001F0CD34908FC
:1002D8005FEA30004FEA3C0C04F101044FEA445253
:1002E80012F5800F80F09A80BCF1004F08BF5FEADA
:1002F800500C50F1000041EB045141EA050130BDBA
:100308005FEA4C0C404141EB010111F4801FA4F15C
:100318000104E9D191F0000F04BF01460020B1FAB1
:1003280081F308BF2033A3F10B03B3F120020CDAE9
:100338000C3208DD02F1140CC2F10C0201FA0CF0C7
:1003480021FA02F10CE002F11402D8BFC2F1200C2C
:1003580001FA02F120FA0CFCDCBF41EA0C019040E2
:10036800E41AA2BF01EB0451294330BD6FEA04042B
:100378001F3C1CDA0C340EDC04F11404C4F1200216
:1003880020FA04F001FA02F340EA030021FA04F328
:1003980045EA030130BDC4F10C04C4F1200220FA7F
:1003A80002F001FA04F340EA0300294630BD21FABD
:1003B80004F0294630BD94F0000F83F4801306BF83
:1003C80081F480110134013D4EE77FEA645C18BF77
:1003D8007FEA655C29D094EA050F08BF90EA020F0E
:1003E80005D054EA000C04BF1946104630BD91EA06
:1003F800030F1EBF0021002030BD5FEA545C05D109
:100408004000494128BF41F0004130BD14F5800447
:100418003CBF01F5801130BD01F0004545F0FE41BB
:1004280041F470014FF0000030BD7FEA645C1ABFF0
:10043800194610467FEA655C1CBF0B46024650EA27
:10044800013406BF52EA033591EA030F41F4002153
:1004580030BD00BF90F0000F04BF0021704730B5D9
:100468004FF4806404F132044FF000054FF00001AE
:1004780050E700BF90F0000F04BF0021704730B56F
:100488004FF4806404F1320410F0004548BF404244
:100498004FF000013EE700BF42004FEAE2014FEA99
:1004A80031014FEA02701FBF12F07F4393F07F4F74
:1004B80081F06051704792F0000F14BF93F07F4FA6
:1004C800704730B54FF4607401F0004521F00041E9
:1004D80020E700BF50EA010208BF704730B54FF06F
:1004E80000050AE050EA010208BF704730B511F074
:1004F800004502D5404261EB41014FF4806404F1AC
:1005080032045FEA915C3FF4DCAE4FF003025FEA2D
:10051800DC0C18BF03325FEADC0C18BF033202EBB5
:10052800DC02C2F1200300FA03FC20FA02F001FA0F
:1005380003FE40EA0E0021FA02F11444C1E600BFAE
:1005480070B54FF0FF0C4CF4E06C1CEA11541DBF61
:100558001CEA135594EA0C0F95EA0C0F00F0DEF82C
:100568002C4481EA030621EA4C5123EA4C5350EA11
:10057800013518BF52EA033541F4801143F4801362
:1005880038D0A0FB02CE4FF00005E1FB02E506F0F3
:100598000042E0FB03E54FF00006E1FB03569CF048
:1005A800000F18BF4EF0010EA4F1FF04B6F5007F4E
:1005B80064F5407404D25FEA4E0E6D4146EB0606C0
:1005C80042EAC62141EA55514FEAC52040EA5E5049
:1005D8004FEACE2EB4F1FD0C88BFBCF5E06F1ED8F3
:1005E800BEF1004F08BF5FEA500E50F1000041EB2A
:1005F800045170BD06F0004646EA010140EA0200D7
:1006080081EA0301B4EB5C04C2BFD4EB0C0541EAF8
:10061800045170BD41F480114FF0000E013C00F30D
:10062800AB8014F1360FDEBF002001F0004170BD31
:10063800C4F10004203C35DA0C341BDC04F114044A
:10064800C4F1200500FA05F320FA04F001FA05F2D6
:1006580040EA020001F0004221F0004110EBD370A3
:1006680021FA04F642EB06015EEA430E08BF20EACF
:10067800D37070BDC4F10C04C4F1200500FA04F372
:1006880020FA05F001FA04F240EA020001F0004104
:1006980010EBD37041F100015EEA430E08BF20EA77
:1006A800D37070BDC4F1200500FA05F24EEA020EBF
:1006B80020FA04F301FA05F243EA020321FA04F0EE
:1006C80001F0004121FA04F220EA020000EBD370A5
:1006D8005EEA430E08BF20EAD37070BD94F0000FA5
:1006E8000FD101F00046400041EB010111F4801FD9
:1006F80008BF013CF7D041EA060195F0000F18BF8A
:10070800704703F00046520043EB030313F4801FC5
:1007180008BF013DF7D043EA0603704794EA0C0F7F
:100728000CEA135518BF95EA0C0F0CD050EA410695
:1007380018BF52EA4306D1D181EA030101F0004112
:100748004FF0000070BD50EA410606BF104619463A
:1007580052EA430619D094EA0C0F02D150EA013646
:1007680013D195EA0C0F05D152EA03361CBF104687
:1007780019460AD181EA030101F0004141F0FE4126
:1007880041F470014FF0000070BD41F0FE4141F4AA
:10079800780170BD70B54FF0FF0C4CF4E06C1CEAAA
:1007A80011541DBF1CEA135594EA0C0F95EA0C0F5F
:1007B80000F0A7F8A4EB050481EA030E52EA03351A
:1007C8004FEA013100F088804FEA03334FF080553B
:1007D80045EA131343EA12634FEA022245EA111568
:1007E80045EA10654FEA00260EF000419D4208BF19
:1007F800964244F1FD0404F5407402D25B084FEAC6
:100808003202B61A65EB03055B084FEA32024FF471
:1008180080104FF4002CB6EB020E75EB030E22BFCE
:10082800B61A754640EA0C005B084FEA3202B6EB8E
:10083800020E75EB030E22BFB61A754640EA5C003D
:100848005B084FEA3202B6EB020E75EB030E22BFCD
:10085800B61A754640EA9C005B084FEA3202B6EBCE
:10086800020E75EB030E22BFB61A754640EADC008D
:1008780055EA060E18D04FEA051545EA16754FEAEF
:1008880006164FEAC30343EA52734FEAC2025FEA0D
:100898001C1CC0D111F4801F0BD141EA00014FF09C
:1008A80000004FF0004CB6E711F4801F04BF01436D
:1008B8000020B4F1FD0C88BFBCF5E06F3FF6AFAE89
:1008C800B5EB030C04BFB6EB020C5FEA500C50F119
:1008D800000041EB045170BD0EF0004E4EEA11319C
:1008E80014EB5C04C2BFD4EB0C0541EA045170BDA3
:1008F80041F480114FF0000E013C90E645EA060EE7
:100908008DE60CEA135594EA0C0F08BF95EA0C0F14
:100918003FF43BAF94EA0C0F0AD150EA01347FF45C
:1009280034AF95EA0C0F7FF425AF104619462CE733
:1009380095EA0C0F06D152EA03353FF4FDAE104696
:10094800194622E750EA410618BF52EA43067FF4E7
:10095800C5AE50EA41047FF40DAF52EA43057FF477
:10096800EBAE12E74A0011D212F5001211D20DD5E2
:100978006FF47873B3EB62520ED44FEAC12343F09D
:10098800004343EA505323FA02F070474FF0000047
:10099800704750EA013002D14FF0FF3070474FF0F6
:1009A80000007047014B1868704700BF58070020C7
:1009B80010B409490C6924F440740C610C6944F4BE
:1009C80040740C610C6944F001040C6102604360DE
:1009D8005DF8044B704700BF003C0240074B1A69A2
:1009E80022F440721A611A6942F400721A611A6993
:1009F80042F001021A610160704700BF003C0240EA
:100A0800074B1A6922F440721A611A6942F480721B
:100A18001A611A6942F001021A610180704700BF29
:100A2800003C0240064B1A6922F440721A611A69A6
:100A38001A611A6942F001021A610170704700BF19
:100A4800003C0240204BDB6813F0100F07D01F4A10
:100A5800D36943F01003D36110221B4BDA601A4BA1
:100A6800DB6813F0200F07D0184AD36943F0080356
:100A7800D3612022144BDA60134BDB6813F0400F6C
:100A880007D0124AD36943F00403D36140220E4BC6
:100A9800DA600D4BDB6813F0800F07D00B4AD3697F
:100AA80043F00203D3618022074BDA60064BDB6810
:100AB80013F0020F07D0054AD36943F02003D3612E
:100AC8000222014BDA607047003C02405C070020BC
:100AD800094B1B69002B01DB00207047064B074AB6
:100AE8005A6002F188325A601B69002B01DB002032
:100AF80070470120704700BF003C02402301674552
:100B0800034A136943F0004313610020704700BF94
:100B1800003C024038B504460022154BDA61FFF765
:100B280041FF0546134BDB6813F4803F0AD0B4F14C
:100B3800FF3FF7D0CCB1FFF735FF401B8442F1D21D
:100B4800032038BD0B4BDB6813F0010F02D00122E4
:100B5800084BDA60074BDB6813F0F20F01D1002075
:100B680038BDFFF76FFF012038BD032038BD00BF37
:100B78005C070020003C02402DE9F0411D4C247E1A
:100B8800012C03D102242046BDE8F081984617467F
:100B98000E4605460122174B1A764CF25030FFF7E5
:100BA800B9FF044698B9B5B1012D19D0022D1CD052
:100BB8003A4643463046FFF7FBFE4CF25030FFF70B
:100BC800A9FF04460C4A136923F0010313610022AC
:100BD800084B1A76D7E7F9B23046FFF723FFECE760
:100BE800B9B23046FFF70CFFE7E739463046FFF762
:100BF800F5FEE2E75C070020003C0240074B1A695B
:100C080022F440721A611A6942F004021A611A69E0
:100C180042EA002040F4803018617047003C0240EE
:100C2800F9B101291FD0022918D04FF440710F4B98
:100C38001A6922F440721A611A690A431A611A6918
:100C480022F0F8021A611A6942EAC00040F0020074
:100C580018611A6942F480321A6170474FF40071C2
:100C6800E5E70021E3E74FF48071E0E7003C02404C
:100C7800164B1B6813F4007F10D0144B1A6822F42B
:100C880000721A601A6842F400621A601A6822F444
:100C980000621A601A6842F400721A600B4B1B68F3
:100CA80013F4806F10D0094B1A6822F480621A601E
:100CB8001A6842F480521A601A6822F480521A6044
:100CC8001A6842F480621A60704700BF003C024014
:100CD800F8B5224B1B7E012B02D102273846F8BDFE
:100CE8000E46044601221D4B1A764CF25030FFF78F
:100CF80011FF074670BB4FF0FF3333602368012BA9
:100D080016D0A568E368A26813449D4220D2217CCE
:100D18002846FFF785FF4CF25030FFF7FBFE104ADC
:100D2800136923F0FA031361074680B90135E9E72F
:100D38006168207CFFF762FF4CF25030FFF7EAFE53
:100D48000746074A136923F00403136100E035607E
:100D5800FFF78EFF0022014B1A76BFE75C070020E1
:100D6800003C024070474268136843F00103136077
:100D7800012070474268136823F0010313600120C3
:100D880070474368586880B2704743681A68D2074A
:100D98005DBF59600182012000207047008A7047BA
:100DA80043689960DA60704710B5044601F0A6FC04
:100DB800204610BD037B012B03D0022B09D0002055
:100DC800704783681B68407B23FA00F000F001003D
:100DD800704783685B68F6E710B5037B012B02D088
:100DE800022B13D010BD8268817B946803FA01F14D
:100DF80021439160417B946803FA01F1214391609A
:100E0800C07B916883400B43936010BD8268817BEF
:100E1800D468012303FA01F12143D160417BD468EE
:100E280003FA01F12143D160C07BD16883400B43B1
:100E3800D36010BD054A02600022426082600282CF
:100E4800027342738273C273704700BF8C2F00080D
:100E5800104B42609A42816003D003F580639A4246
:100E680008D1012303731B234373162383731923A8
:100E7800C3737047084B9A4203D003F580639A42C4
:100E8800F7D1022303730B234373062383730923C8
:100E9800EEE700BF5860024088600240704710B516
:100EA800044601F02BFC204610BDF0B587B00125A3
:100EB8000024022306460F460194059302950495E3
:100EC800FFF706FE0B2C1AD047FA04F3DA0714D5FD
:100ED800B6F9103003942341DB0707D4694601A80B
:100EE800FFF7F6FE05FA04F3B0803382B38823B126
:100EF800FFF706FE002007B0F0BD0134E2E7FFF778
:100F0800FFFD0120F7E7F0B500259D4212DA0C88B5
:100F180032F8156064BAA4B2A64201F1020706D0FD
:100F2800012381608681C48183800020F0BD013562
:100F38003946EAE7002383800120F0BD10B5848894
:100F48000C808168116082891A80029BC2891A808C
:100F58008088B0FA80F0400910BD000010B5154B2C
:100F680000200428C2B20BD0A3F58044A14203D3C9
:100F7800994201D290B210BD013003F58043F0E7E9
:100F880001F1774303F57F03B3F5803F10D30A4B94
:100F98000022072AD0B20BD0A3F50034A14203D314
:100FA800994201D2053010BD013203F50033F0E754
:100FB80010BD00BF0040000800000408F8B5164640
:100FC8000546FFF7CBFF314404462846FFF7C6FF26
:100FD80000210122844206DC02FA04F31943013499
:100FE80009B2A4B2F6E72846BDE8F840FFF75DBFAE
:100FF8002DE9F0411F4605460E469046FFF768FD6D
:10100800B7F5807FA8BF4FF480770024A3B2BB4216
:1010180013DA38F8142052BA314692B2002301206C
:10102800FFF7AAFD80B2A880023601340028EDD06F
:10103800FFF766FD0020BDE8F081FFF761FD31464E
:101048002846FFF78BFFF11904462846FFF786FF6D
:101058000121844208DC2B8A01FA04F223EA020304
:1010680001342B82A4B2F4E70120BDE8F08100002E
:10107800024A026000220282704700BFBC2F0008AB
:10108800704710B5044601F039FB204610BD00003A
:1010980038B5064D00242146013401222846E4B221
:1010A80000F016FA042CF6D1012038BD9C0500206A
:1010B8002C4B1A6842F400722DE9F3411A601A6841
:1010C800294D2A492A4C42F480621A601A6842F46F
:1010D80080721A606A6C42F480426A642A6C42F038
:1010E80080522A640A6842F480420A6005228046D7
:1010F8001A702046012100F0BBF902260427204679
:10110800002100F0CDF9A8233A4620468DE8C0001A
:101118004FF4800100F006F92046012100F0C0F9E3
:101128003146204600F0A8F800221146204600F07B
:1011380017F939460122204600F012F932460321F8
:10114800204600F00DF94046FFF7A2FF6B6C43F410
:1011580080436B64204600F047F988ED010A02B02D
:10116800BDE8F081003C02400038024000700040B9
:101178009C050020004870475405002070477047C0
:10118800704770477047704770477047704770479F
:10119800704770477047704770477047704770478F
:1011A80070477047704770477047704710B5064BD7
:1011B800036000230446436040220021083001F008
:1011C80012FD204610BD00BFCC2F000810B5054CFD
:1011D8002046FFF7EBFF2046034A0449BDE81040CC
:1011E80001F08EBA54050020000000208910000884
:1011F800704710B5044601F081FA204610BD000082
:101208001B4B70B505461C4603609868686054F827
:101218000C0F616805F1080203C2217A11701A46A1
:1012280005F11C0452F8151FC5F8111012796A75DA
:10123800AA76C5F8161003F11A022A331068516805
:10124800264603C608329A423446F7D1094C138819
:1012580033800FCC05F130060FC654F8043B3360D9
:101268000FCC05F144060FC623683360284670BDCD
:10127800DC2F000808300008064B9A6822F00302A9
:101288000A439A6089009A6802F00C028A42FAD1ED
:10129800704700BF00380240034A536823F48003B4
:1012A80019435160704700BF0038024010B5032948
:1012B80016D8DFE801F002071727931E3D2B29D91E
:1012C800002010BDA2F12803B3F5C47FF8D8144953
:1012D8004B6823F4FF4323F0400343EA82124A6039
:1012E800012010BDC31CD1B207309842E8D013F8D2
:1012F800014F8C42F9D10A494B685208013A23F44C
:1013080040330BE0931E0D2BDAD805494B6823F0C8
:10131800706303E002494B6823F03F031A43DEE79A
:10132800003802402DE9F041904604461F46069ECB
:10133800079DFFF7B1FF42460021FFF7B7FF3A4686
:1013480001212046FFF7B2FF324602212046FFF76F
:10135800ADFF2A4620460321BDE8F041FFF7A6BFAE
:10136800032917D0042928D091B9C31D10309842F9
:1013780036D013F8011F9142F9D112B1013A42F067
:10138800080218498B6823F0F00343EA02128A60C6
:101398000120704700F110031530834220D013F864
:1013A800011F9142F9D10F498B68501E23F4E05276
:1013B80042F4805242EA8022E9E700F115031A302C
:1013C80083420DD013F8011F9142F9D105498B686A
:1013D80023F46043013A43F4004343EA4232D6E738
:1013E80000207047003802401D4A9368C3F3810308
:1013F800012B0AD0022B0BD0DFED1A7A9FED1A0AC7
:10140800002B18BFB0EE670A70479FED180A7047A7
:101418005368DFED157ADFED156A13F4800F536812
:1014280003F03F0308BFF0EE676A07EE903AF8EE64
:10143800E77A536886EEA76AC3F3881307EE103A73
:101448005368C3F3014301335B0007EE903AB8EEEB
:10145800C77AF8EEE77A27EE067A87EE270A70470A
:1014680000380240000000000024744B0024F44AB5
:101478000A4B1868002920F4803014BF4FF48032DA
:10148800002242EA00021A6014BF00214FF4003122
:101498001A6802F400329142FAD0704700380240CC
:1014A8000A4B1868002920F0807014BF4FF0807232
:1014B800002242EA00021A6014BF00214FF00071B6
:1014C8001A6802F000729142FAD070470038024060
:1014D80030B50E4B15460C460FCB87B00DF1180EE4
:1014E8000EE90F000EEB8404094A54F8103C106B07
:1014F800002D20EA030014BF19460021014311639F
:10150800126C13400193019B07B030BD30300008C6
:101518000038024010B5054C2046FFF771FE204602
:10152800034A0449BDE8104001F0EAB89C050020D0
:1015380000000020F911000841617047C06A036883
:101548000A461B6840F2FF711847C16070470000E7
:1015580010B5094B044640F8103B00F089FA04F531
:101568008A6000F0B3FB0023C4F84844A360E3603A
:10157800A380204610BD00BF8430000870B5044623
:1015880080680D46E8B14A68A38811898B4204D067
:10159800B4F95666002EF9DC0B46A380118901F5D3
:1015A800C061FFF7C9FF6B68A068198901F5B061D0
:1015B800FFF7C4FF04F58A60294600F0B8FB002055
:1015C80070BD012070BD10B504460846A36833B14C
:1015D800E16831B100F056F80020E06010BD01204C
:1015E80010BD022010BD10B5044600F58A6000F059
:1015F80079FB04F11000BDE8104000F0C6BA000005
:1016080010B5064B0360044600F58A6000F057FBEE
:1016180004F1100000F0FCF9204610BD84300008E9
:1016280010B50446FFF7ECFF204601F067F82046A6
:1016380010BD704710B5044601F060F8204610BD93
:1016480038B5054608460C46FEF7BAFDB5F90A3026
:10165800421CC3F58070824238BF10B203F1060203
:101668006B6828BF00B203EB4203013C14F8012F5A
:1016780012B123F8022BF9E71A806B89013303446E
:101688006B8138BD4968002330B5038144684381C4
:1016980071B1B1F900300222023393FBF2F3002258
:1016A8009A4208D031F8125024F812500132F7E764
:1016B8004FF0FF33EFE730BD416810B50A880023CB
:1016C80052081846934204DA31F813400133604057
:1016D800F8E710BD38B50446406880B1257D6DB97E
:1016E80003685B6898472369E268934208D290428E
:1016F80003D2984234BF002501252575207D38BDC9
:10170800904205D3984234BF002001202075F5E7A8
:101718000120FBE780687047036881605B681847B1
:10172800704701207047012070470430704710B59A
:10173800044600F0E3FF204610BD38B50446406873
:10174800A8B10023237503685B689847A568E06023
:1017580005446068256103681B699847854206D976
:10176800606803681B6998472369181A206138BDA7
:10177800B0F90A304268063310B55B00044613809E
:10178800FFF79AFF62683AB1B2F90030022193FB81
:10179800F1F322F8130010BD4FF0FF33F6E7000015
:1017A800F8B52A4B03602A4B43600025294BC0F843
:1017B80030320446C0F84C34C0F83452A0F83A52DB
:1017C800A0F83852C0F85054A0F85654A0F8545411
:1017D80000F25C4000F04CF904F69C0000F076FA48
:1017E80004F6A820FFF7B4FE41F20812A31804F18A
:1017F800220640F20E271849A15030465D609D60D0
:10180800DD601D611D753A462946A5816561258300
:101818002561E5612584A4F8585401F0E4F9C4F879
:10182800346204F23E26A4F83852A4F83A523A46F2
:101838002946304601F0D7F9C4F85064A4F8545446
:10184800A4F85654C4F894482046F8BD98300008C7
:1018580018310008E8300008F830000800F50C706E
:10186800FFF7EEBE38B5D0F85034B0F858249A8057
:10187800B0F858240132A0F8582400F24C45828967
:101888001A81044659812846FFF772FF294604F653
:101898009C00BDE8384000F04ABA38B5D0F8343278
:1018A800028C9A8082891A8100F50C750446598148
:1018B8002846FFF75DFF294604F69C00BDE838403E
:1018C80000F035BA38B50A460446002945D04B68B9
:1018D80085891889854205D004F6A820BDE83840D6
:1018E800FFF74CBEE16911B99988013121849988C3
:1018F800208CE261884207D104F50C7104F69C0043
:10190800BDE8384000F013BA2184B3F90A302169E0
:101918005B1A02D4218B8B4206DD20466FF0290129
:10192800BDE83840FFF7B9BF616951F82350002D71
:10193800F3D0D4F8341200234B81208C8880A089FE
:101948000881A4F83A3220461381A84704F50C759B
:101958002846FFF70DFF2946D0E738BD70B5044685
:1019680000F25C45284600F010F90528FAD004F684
:101978009C0504F6A826284600F0B4F904F50C7472
:101988003046FFF730FE21463046FFF71CFE28B9E7
:1019980021462846BDE8704000F0C9B970BD000076
:1019A800F7B541F2041600F5885481510546E16007
:1019B800083420461746FFF7C0FEA85903681B687D
:1019C800984738468DED000BFEF744FD9DED000B62
:1019D80006460F460CA3D3E9002351EC100BFEF783
:1019E800D9FE02460B4630463946FEF7A9FDFEF7FA
:1019F800B9FF01462046FFF78FFEC5F8984803B0A7
:101A0800F0BD00BFAFF300800000000080842E41CD
:101A1800704710B5044600F071FE204610BD10B5A1
:101A28000446FFF749FE626852B1B2F9003002215C
:101A380093FBF1F332F813301B1A5842584110BD8A
:101A48004FF0FF33F3E7B0F92C340D2B0DDDD0F850
:101A580024243AB1B2F9000001309842ACBF00200A
:101A6800012070474FF0FF30F6E700207047000074
:101A780038B5104B0360002104460F4BC0F82034E2
:101A8800051DA0F82A14A0F82814A0F82C14A0F812
:101A98002E1480F83014C0F83414C0F83814C0F884
:101AA8003C1440F21C42284601F09DF8C4F8245426
:101AB800204638BDA4300008E8300008B0F92C24CE
:101AC800002A30B519DD013A031DA0F82C240021A5
:101AD8000225B0F92C2492FBF5F4A14208DA5A88C1
:101AE8001C88120242EA142223F8022B0131F0E783
:101AF800D20742BF1A88120A1A8030BDD0F834348F
:101B080070B50446002B3FD00226D4F8340403688D
:101B18001B689847002837D0B4F92C54B5F5037FD3
:101B280023DB70BD03685B689847B4F92C3493FBDA
:101B3800F6F304EB43039A8842EA00209880B4F84D
:101B48002C340133A4F82C34D4F83C34002BDCD0EA
:101B5800D4F8340403681B6898470028D5D1D4F812
:101B68003C0403685B689847CFE715F0010FD4F889
:101B78003404D7D103685B68984795FBF6F504EB06
:101B88004505C0B2A880DAE770BD70B50446FFF716
:101B9800B5FFB4F92C34002B19DDD4F83C04B0B1EE
:101BA80003681B68984790B104F5846601252046B0
:101BB800FFF784FF2046FFF746FF10B33046FFF7D4
:101BC8002EFF38B3D4F83C0403685B68984704F5E3
:101BD80084650126B4F92C34012B2BDDD4F8243488
:101BE8001B88DA0722D594F8303433B9B4F82E3488
:101BF80084F830640133A4F82E342046FFF75EFFE2
:101C0800E8E7B4F92C340D2B04DCA4F82C040126E5
:101C1800304670BD94F83034002BC8D1B4F82E3457
:101C280084F830540133A4F82E34C0E70C3BB3F5E4
:101C3800007FD8D82046FFF706FF20B12846FFF7D7
:101C4800EEFE0028CFD02046FFF7FDFE08B9022699
:101C5800DEE7D4F83804002384F8303450B303683E
:101C680004F584611B6898470526D4F824341BB30F
:101C7800B3F90050B4F92C240235ADB229B291421F
:101C88000BDC521A201D0223013291FBF3F192FB67
:101C9800F3F200EB410100F08CFFB4F82C34D4F8D7
:101CA8003C045D1BA4F82C540028B1D003685B6881
:101CB8009847ADE70326D8E74FF0FF35DAE77047D6
:101CC80010B5044600F01AFD204610BD044A026013
:101CD8000022A0F80422A0F80622C0F808227047C3
:101CE800B430000838B50446D0F80802F0B1B4F9A9
:101CF8000432B4F9062205689918B1F5007FC8BF07
:101D0800C3F5007204F104011944C8BF12B2ED68AA
:101D1800A847B4F8043280B20344C3F30803A4F814
:101D28000432B4F80632181AA4F8060238BD2DE9B0
:101D3800F843D0F808320546DBB34E687EB3B6F9EF
:101D4800004002340227002C33DD2846FFF7CAFF83
:101D5800B5F90612C1F50072A242A6F1020E4FF0C3
:101D68000000A8BF224692FBF7FC60451ADAB5F9D5
:101D78000432BEF802900B4403EB4003C3F3080897
:101D8800A844013388F804903EF8028FC3F308038F
:101D98002B444FEA182883F804800130E5E74FF018
:101DA800FF34CEE71144A5F80612A41A06EB4C0638
:101DB800C9E7BDE8F88338B503681B680446984747
:101DC80078B141F2D02141F2B902635AE01840F2E9
:101DD80016250133805C93FBF5F205FB1233635241
:101DE80038BD4FF0FF3038BD7047704710B5044616
:101DF80000F084FC204610BD41F2B8020346805C26
:101E080010B570B141F2D0229C5A41F2D8229858AC
:101E180003689B689847C0F505700230001B18BF1F
:101E2800012010BDC388013B9BB270B5082B868882
:101E380028BF0823B342044611D040F2162070434D
:101E4800231816120A301E725A72204400F0A6FE99
:101E5800A388013303F00703A380012070BD00208D
:101E680070BD10B5141E03DDA2B2FFF7DBFF00B989
:101E78000024204610BD0000F8B541F2B80304461E
:101E8800C35C002B3BD01E4D2B78002B37D18288AA
:101E9800C3889A4233D041F2D42640F2162780599B
:101EA80003689B699847A059E28841F2503307FBC1
:101EB8000242E15803680832DB690C319847E3882D
:101EC800A05907FB03431A7A597A036841EA0221A9
:101ED800023189B2DB689847A05903681B689847A4
:101EE800E3880848696800684A69013303F0070312
:101EF800E38001232B70834022EA03034B61F8BD82
:101F0800F405002004000020FFF7B6BF064A074B7F
:101F1800516810B51C6848690123A34003434B610D
:101F28000023137010BD00BFF4050020040000203A
:101F38002DE9F84F044641F250380B9E44F808103A
:101F480041F2D82741F2543941F2D42196460A98F1
:101F58000C9ADFF8A4B044F809E00125E051635079
:101F68007369DFF898A0CBF8002005FA02F21A434B
:101F780041F2E6237261CAF804600026E65241F293
:101F8800E82304F58552E65241F2B8030EF10C013C
:101F9800E55441F2D023A680E680E6520368193260
:101FA800DB699847E059036840F21621DB689847D7
:101FB800DAF80430DBF800105A69E0598D4015430F
:101FC8005D6103681B68984754F80920536843F01B
:101FD8000103536054F80830596841F00201596010
:101FE800116841F0400111601A6842F040021A601D
:101FF8008AF80060BDE8F88F04000020F40500208E
:10200800184B036041F250310023435010B541F2A0
:10201800543141F2D4244350C3808380035141F2A8
:10202800D8241149035141F2E6240B7003534B6045
:1020380041F2E82400F5975103530B8041F2E22165
:10204800435241F2E421435241F2DC21435241F22E
:10205800DE21435241F2D021435241F2B8014354A8
:1020680010BD00BFC8300008F405002001207047EB
:10207800014B012018707047FC050020000000008B
:102088009FED010B704700BF0000000080842E41C7
:102098004FF08043586A70470020704770474FF0F0
:1020A800FF307047704770477047000008B5034914
:1020B800FFF7D4FB024B0120587008BD4C310008D3
:1020C800FC05002008B50349FFF7C8FB024B0120B7
:1020D800587008BD52310008FC050020FFF716BFF4
:1020E800034AD36843F40063D360024B5B68184724
:1020F80000600240FC0500200246B0F90830516833
:10210800981D013331F81000138170470246B0F969
:1021180008305168981D023351F810001381704738
:102128000246B0F908305168981D023351F8100082
:102138001381704770B50546C069FFF7F1FF044683
:10214800E869FFF7E3FF0646FEF7C2FC013E0AD442
:10215800E869FFF7D1FF214682B200230120FEF78C
:102168000BFD0234F2E7FEF7CBFC012070BDB0F99D
:102178000A304268063322F8131043890133438139
:10218800704770B50446C069FFF7CAFF0646E069A4
:10219800FFF7BCFF04F50C740546013D05D436F87D
:1021A800021B2046FFF7E3FFF7E7012070BD0000A0
:1021B80030B587B00023ADF80E30ADF81030ADF86B
:1021C80012300DF11203044605AA00930DF10E0119
:1021D80004AB1348FEF7B2FE04F50C7581B228462D
:1021E800FFF7C5FFBDF80E102846FFF7C0FFB4F98A
:1021F8003A32D4F8342205990633284642F81310A7
:10220800B4F83A32BDF810100233A4F83A32FFF7A6
:10221800AEFFBDF812102846FFF7A9FF07B030BD82
:102228000406002038B50446C069FFF779FF054663
:10223800E069FFF76BFF294602460448FEF7BEFE39
:102248002046FFF7B5FF012038BD00BF0406002077
:102258002DE9F0430446ADF5037DC069FFF760FF43
:102268000090E069009FFFF751FF0190E069FFF7D8
:1022780043FF0026814602AD019B1FFA86F8984568
:1022880006F1010605DAE069FFF736FF25F81800C0
:10229800F2E7019B0B482A463946FEF7A9FE40B1F2
:1022A800B9F1000F05D0019B06482A463946FEF7CA
:1022B8002AFE2046FFF77CFF01200DF5037DBDE8CF
:1022C800F08300BF040600202DE9F0410446ADF577
:1022D800007DC069FFF724FF8046E069FFF716FF1D
:1022E80000250646AFB2B74205F1010505DAE069F7
:1022F800FFF702FF2DF81700F4E733466A46414618
:102308000548FEF700FE2046FFF752FF01200DF5B5
:10231800007DBDE8F08100BF0406002010B5054C23
:102328002046FEF7A5FE2046034A0449BDE81040B2
:1023380000F0E6B90406002000000020A50E000801
:102348002DE9F04F644C654D2368DFF8CCB143F0BC
:10235800C0632360236843F4806323602368ADF57A
:10236800125D8FB043F480730DF118082360404666
:10237800FEF760FD2246A4F56E7459494046FEF703
:1023880067FD23682360236843F480632360236820
:1023980043F040032360534B4FF480321A602368A4
:1023A80043F0100323600BA8FEF744FD0DF58B578F
:1023B80022464D490BA8FEF74BFD3846FFF720FE95
:1023C80007230293494B4A4A4A49019338460BABC3
:1023D800CDF80080FFF7ACFD474B6B6010A8FFF706
:1023E800DFF90DF58A5300261E60444B15934FF410
:1023F800FE4314934FF080440923ADF85830404A07
:10240800404B8DF8486005A910A8CDF8D078CDF8D4
:10241800E47ACDF8F06ACDF82C6FADF84C600593EE
:10242800FFF7BEFAD4F82490D4F824A0626A364B99
:10243800A2EB09029A420CD96A7852B90136F6B26F
:10244800032ED4F8249004D840F2FF7110A8FFF7A7
:1024580009FA626A2D49A2EB0A028A420ED9D4F817
:1024680024A0DBF8102012F4005FDBF8142014BF5E
:1024780022F4005242F40052CBF8142010A8FFF7BF
:102488006DFA3846FFF740FD2A780AB9032ECDDDEC
:102498001F4A1268013203D101226A700026C5E77B
:1024A8001C4B10930DF6E820FFF7AAF80DF6DC0098
:1024B800FFF705FC0DF29C40FFF7AAFA3846FFF734
:1024C80094FC0BA8FEF74EFC4046FEF74BFC0DF5BE
:1024D800125D0FB0BDE8F08F40640240FC0500209B
:1024E8000064024000E100E000600240000C02408D
:1024F80000300140003C0040E520000808000020B2
:1025080020A107002C31000840420F00A0860100DE
:10251800004000089830000800080240B0B5474C59
:1025280000AFFEF727FEFEF7C3FD236C43F001035F
:1025380023644FF0804353229A624FF0FF32DA62ED
:102548005A6942F001025A611A6842F001021A609F
:102558001A6842F080021A6003F50233A3F580631B
:10256800D3F8002442F08062C3F80024D3F808248A
:1025780042F04062C3F808244FF420721A604FF406
:1025880070729A604FF4CC221A62A3F5806300251A
:102598001A6842F0004242F40A421A609A6842F00D
:1025A800404242F44F429A601A6A42F0A04242F412
:1025B800AC021A625A6A42F0A0425A62236B43F490
:1025C80000132363236B43F480032363636C43F496
:1025D80080536364236C43F400432364184B5A69A3
:1025E80042F080025A611A6842F480421A609A687E
:1025F80042F440429A60FFF7A3FE4FF6FF73FF22B2
:102608002362626223610F4B2361F123636101231B
:10261800A3610D4B23620D4B63620D4B0D4A1D6088
:102628005D609D600C4B2562656225611B681268C0
:1026380082F3088898472846B0BD00BF003802409A
:10264800000C0240FF116022FFC9FE363359070013
:1026580010E000E000400008044000080F49D1F8ED
:10266800883043F47003C1F888300D4B1A6842F083
:1026780001021A60002098601A6822F0847222F41D
:1026880080321A60074A5A601A6822F480221A6057
:10269800D8604FF000638B60704700BF00ED00E02A
:1026A8000038024010300024DFF834D0002103E065
:1026B8000C4B5B58435004310B480C4B42189A4260
:1026C800F6D30B4A02E0002342F8043B094B9A4236
:1026D800F9D3FFF7C3FF00F01FF8FFF71FFF70479C
:1026E8000000022084310008000000203805002086
:1026F800380500208C070020FEE7000000F038B8FD
:102708000B460146184600F001B800BF13460A46BA
:102718000146022000F08CBA70B50D4E0D4CA41B7A
:10272800A4100025A54209D10B4E0C4C00F01AFC50
:10273800A41BA4100025A54205D170BD56F825306C
:1027480098470135EEE756F8253098470135F2E706
:1027580070310008703100087031000880310008BD
:10276800024B0146186800F00BB800BF4404002073
:10277800024B0146186800F027BB00BF4404002044
:102788002DE9F74F01F10B04162C814607D934F0D7
:10279800070405D50C23C9F80030002631E11024C0
:1027A8008C42F7D3484600F027FAB4F5FC7F9C4DDD
:1027B80036D204F108022A44A2F1080156688E4272
:1027C8004FEAD40302D1D668B24210D07368F268D7
:1027D800B16823F00303CA60334491605A6842F039
:1027E80001025A60484600F00DFA083609E1023342
:1027F8008C4A2E69964211466DD0706820F003000D
:10280800071B0F2F47DD331944F0010474606B6117
:102818002B61DA609A6047F001025A603750E1E7AD
:10282800630A2AD0042B12D8A30938335A1C05EBA3
:10283800C202A2F108005668864206D0726822F0E9
:102848000302111B0F291CDD013B0133D0E7142BB8
:1028580001D85B33EAE7542B02D8230B6E33E5E744
:10286800B3F5AA7F02D8E30B7733DFE740F254527F
:10287800934204D8A30C7C33D8E73F23D6E77E23C2
:10288800D4E70029F16804DBB368D9608B60B3181A
:10289800A4E70E46D0E7002F6A612A6105DB3044C1
:1028A800436843F0010343609CE7B0F5007F44D2DE
:1028B800C0088710012202FA07F76A6801303A4314
:1028C8006A6005EBC00255F83070B760083AF260EC
:1028D80045F83060FE6001209A1000FA02F268683C
:1028E800824200F2A180024206D123F00303520083
:1028F800024203F10403FAD005EBC30CE0469E46FE
:10290800D8F80C60464553D10EF1010E1EF0030FA6
:1029180008F10808F4D1980779D16B6823EA020313
:102928006B606868520082427ED8002A7CD0734669
:102938000242E1D104335200FAE7420A042A15D8C8
:1029480082093832571C05EBC20E55F83770BE4560
:1029580026D10120921000FA02F2686810436860DC
:10296800C6F80CE0B760CEF80860B3E7142A01D8BF
:102978005B32E7E7542A02D8020B6E32E2E7B2F57F
:10298800AA7F02D8C20B7732DCE740F25457BA422A
:102998009ABF820C7C327E22D4E7BF68BE4504D041
:1029A8007A6822F003029042F7D3D7F80CE0D7E711
:1029B8007068F76820F00300A0EB040ABAF10F0F63
:1029C80010DDB268331944F001047460D760BA604E
:1029D8004AF001026B612B61D96099605A6046F830
:1029E80000A0FFE6BAF1000F0FDB3044436843F064
:1029F8000103436056F8083F4846DF60BB6000F0BB
:102A080001F9304603B0BDE8F08F3E467AE75CF83E
:102A18000809844503F1FF333FF47DAF81E700BF28
:102A28003000002038000020D5F808B0DBF804603A
:102A380026F00306B44203D8331B0F2B00F396800D
:102A48004F4A17684F4A1168103701310BEB0603DC
:102A5800274405D04C4901390F44013149420F4000
:102A6800394648460192009300F0D2F8B0F1FF3F92
:102A7800804656D0009B019A834201D9AB4550D17C
:102A880042480168434507EB010EC0F800E04049A1
:102A9800824613D10B4211D1AB683E4446F0010681
:102AA8005E603C4ADAF8003011688B4288BF1360D8
:102AB800394A11688B4288BF136032E010680130D0
:102AC8001BBFA8EB03037344C2F80080CAF80030A8
:102AD80018F007001CBFC0F1080080442A4B474487
:102AE80018440F40C71B3946484600F091F8431C6C
:102AF80008BF4046DAF80030C5F8088008BF00274C
:102B0800A0EB08003B44074447F00107AB45CAF86F
:102B18000030C8F80470C4D00F2E10D80123C8F8AC
:102B28000430AB685A6822F003029442A2EB040313
:102B380001D80F2B1ADC484600F064F82DE6DBF8C4
:102B480004300C3E26F0070603F001033343CBF8AC
:102B580004300BEB060305220F2E5A609A60A0D9A9
:102B68000BF10801484600F02FF99AE7AE6844F0E7
:102B78000102344443F001037260AC60636031E6E3
:102B88004806002038040020001000001806002025
:102B9800FF0F0000400600204406002010B5431E29
:102BA8000A44914200D110BD11F8014B03F8014FBE
:102BB800F7E7884210B501EB020303D8421E994299
:102BC8000CD110BD9842F9D28118D21AD34200D143
:102BD80010BD13F8014D01F8014DF7E711F8014B4D
:102BE80002F8014FEBE702440346934200D17047D5
:102BF80003F8011BF9E70000014800F0A1B900BF84
:102C080080070020014800F09DB900BF8007002020
:102C180038B5064C002305460846236000F094F9B1
:102C2800431C02D1236803B12B6038BD88070020FC
:102C38002DE9F047354D8046286899460F4692465B
:102C480000F07EF9324B1E68B46C3CB9314B06F18A
:102C58004C04B46413B11B68C6F8D43063681F2BE6
:102C680046DD2D4B33B9286800F06CF94FF0FF3082
:102C7800BDE8F0878C20FFF773FD04460028F2D0EA
:102C8800B36C036000224260B064C0F88820B8F1D9
:102C9800000F21D04FF48470FFF762FD90B300233A
:102CA800C0F80031C0F80431C4F88800626840F800
:102CB80022A00123934000EB8201D0F800211A439F
:102CC800B8F1020FC0F80021C1F8809002BFD0F817
:102CD80004211343C0F80431636828685A1C02337E
:102CE800626044F8237000F02DF90020BDE8F087F9
:102CF800B8F1000FF0D0D4F888000028D6D1064BE0
:102D0800002BC7D1286800F01CF9AFE74004002069
:102D18006431000860310008692700082DE9F8438C
:102D2800254FDFF8A08089460646FFF765FFBB6898
:102D38005D68A8F1110425F00305A4EB09042C44EF
:102D4800B4FBF8F4013C08FB04F4444505DA3046CA
:102D5800FFF758FF0020BDE8F88300213046FFF751
:102D680057FFBB682B449842F1D161423046FFF7C8
:102D78004FFF013010D100213046FFF749FFBA68F4
:102D8800831A0F2BE3DD0D490968401A0C4943F0FB
:102D9800010308605360DAE7BB68094A2D1B45F058
:102DA80001055D60136830461C1B1460FFF72AFF9D
:102DB8000120BDE8F88300BF30000020380400205F
:102DC80018060020001000002DE9F041044688464E
:102DD800002900F0AB80FFF70FFF58F8042C544D82
:102DE80022F00100A8F108031F18A9687E688F4225
:102DF80026F0030602F001021BD130443AB958F814
:102E0800082C9B1A10449968DA68CA60916040F0EF
:102E180001025A60AB60474B1B68984204D3464B8B
:102E280020461968FFF77AFF2046BDE8F041FFF712
:102E3800E9BE7E60002A39D158F8081C5B1A08449C
:102E4800996805F1080E714532D0D3F80CE0C1F845
:102E58000CE0CEF80810B9194968C9070AD43044FB
:102E6800B9683ABB354EB14224D16B612B6101225E
:102E7800D960996040F0010159601850002AD3D1F7
:102E8800B0F5007F1AD2C008811001228A40696813
:102E980001300A436A6005EBC00255F830109960AA
:102EA800083ADA6045F83030CB60BDE70022D2E757
:102EB8000122D0E7FE68CE60B160DBE7420A042A4F
:102EC80013D882093832511C05EBC20655F8311067
:102ED8008E4224D10120921000FA02F2686802435F
:102EE8006A60DE609960B360DEE7142A01D85B325D
:102EF800E9E7542A02D8020B6E32E4E7B2F5AA7F5A
:102F080002D8C20B7732DEE740F254518A429ABFA8
:102F1800820C7C327E22D6E789688E4204D04A68C9
:102F280022F003029042F7D3CE68DAE7BDE8F081D9
:102F3800300000203C040020480600203800002013
:102F48007047704770470000044B1968024609B97A
:102F580003491960186802441A6070475407002032
:102F680090070020F8B500BFF8BC08BC9E46704723
:0C2F7800F8B500BFF8BC08BC9E467047CE
:102F840000000000000000006F0D00087D0D000827
:102F94008B0D0008930D0008A50D0008BD0D000859
:102FA400E10D0008A90D00086D0D0008B10D000821
:102FB4000000000000000000A50E0008A70E000895
:102FC4000000000000000000891000088B100008B9
:102FD4000000000000000000F9110008FB110008C7
:102FE40002040608000102030405060708000102A2
:102FF40003040100020004000800100040008000E7
:10300400000100021038024014380240183802400F
:10301400203802402438024030380240343802401C
:103024003838024040380240443802400100000071
:10303400020000000400000008000000100000006E
:10304400000002000000040000000800000010005E
:10305400200000000010000000400000008000007C
:103064000001000000010000000100000001000058
:103074000002000000040000000000000000000046
:10308400531500080916000829160008000000005E
:1030940000000000CD18000800000000000000003F
:1030A400191A00081B1A00080000000000000000A4
:1030B400371D0008C71C0008C91C000800000000D8
:1030C40000000000011E0008BF1D0008F11D0008DB
:1030D4006B1E0008F31D0008F51D00080000000029
:1030E400000000003B1600083D1600080000000028
:1030F40000000000DD160008431700081D17000833
:1031040021170008291700083717000800000000DD
:10311400000000002B1700082F17000833170008C1
:103124000000000000000000892000089920000829
:10313400A1200008A5200008A7200008AD20000851
:10314400AF200008B1200008302E302E3100426F2D
:103154006F744C6F61646572000000004C060020BF
:0431640048040020FB
:083168009CF5FF7F010000004F
:10317000AD010008D51100081D1500082523000821
:0431800089010008B9
:103184000000000007000000B5200008CD20000862
:103194003D2100088B210008752000082D2200081D
:1031A40059220008D12200087920000800000000FC
:1031B400000000000000000030000020300000206B
:1031C400380000203800002040000020400000208B
:1031D400480000204800002050000020500000203B
:1031E40058000020580000206000002060000020EB
:1031F400680000206800002070000020700000209B
:10320400780000207800002080000020800000204A
:1032140088000020880000209000002090000020FA
:103224009800002098000020A0000020A0000020AA
:10323400A8000020A8000020B0000020B00000205A
:10324400B8000020B8000020C0000020C00000200A
:10325400C8000020C8000020D0000020D0000020BA
:10326400D8000020D8000020E0000020E00000206A
:10327400E8000020E8000020F0000020F00000201A
:10328400F8000020F80000200001002000010020C8
:103294000801002008010020100100201001002076
:1032A4001801002018010020200100202001002026
:1032B40028010020280100203001002030010020D6
:1032C4003801002038010020400100204001002086
:1032D4004801002048010020500100205001002036
:1032E40058010020580100206001002060010020E6
:1032F4006801002068010020700100207001002096
:103304007801002078010020800100208001002045
:1033140088010020880100209001002090010020F5
:103324009801002098010020A0010020A0010020A5
:10333400A8010020A8010020B0010020B001002055
:10334400B8010020B8010020C0010020C001002005
:10335400C8010020C8010020D0010020D0010020B5
:10336400D8010020D8010020E0010020E001002065
:10337400E8010020E8010020F0010020F001002015
:10338400F8010020F80100200002002000020020C3
:103394000802002008020020100200201002002071
:1033A4001802002018020020200200202002002021
:1033B40028020020280200203002002030020020D1
:1033C4003802002038020020400200204002002081
:1033D4004802002048020020500200205002002031
:1033E40058020020580200206002002060020020E1
:1033F4006802002068020020700200207002002091
:103404007802002078020020800200208002002040
:1034140088020020880200209002002090020020F0
:103424009802002098020020A0020020A0020020A0
:10343400A8020020A8020020B0020020B002002050
:10344400B8020020B8020020C0020020C002002000
:10345400C8020020C8020020D0020020D0020020B0
:10346400D8020020D8020020E0020020E002002060
:10347400E8020020E8020020F0020020F002002010
:10348400F8020020F80200200003002000030020BE
:10349400080300200803002010030020100300206C
:1034A400180300201803002020030020200300201C
:1034B40028030020280300203003002030030020CC
:1034C400380300203803002040030020400300207C
:1034D400480300204803002050030020500300202C
:1034E40058030020580300206003002060030020DC
:1034F400680300206803002070030020700300208C
:10350400780300207803002080030020800300203B
:1035140088030020880300209003002090030020EB
:103524009803002098030020A0030020A00300209B
:10353400A8030020A8030020B0030020B00300204B
:10354400B8030020B8030020C0030020C0030020FB
:10355400C8030020C8030020D0030020D0030020AB
:10356400D8030020D8030020E0030020E00300205B
:10357400E8030020E8030020F0030020F00300200B
:10358400F8030020F80300200004002000040020B9
:103594000804002008040020100400201004002067
:1035A4001804002018040020200400202004002017
:1035B4002804002028040020FFFFFFFF0000020071
:1035C4007C070020480400200000000000000000E8
:1035D40000000000000000000000000000000000E7
:1035E40000000000000000000000000000000000D7
:1035F40000000000000000000000000000000000C7
:1036040000000000000000000000000000000000B6
:1036140000000000000000000000000000000000A6
:103624000000000000000000000000000000000096
:103634000000000000000000000000000000000086
:103644000000000000000000000000000000000076
:103654000000000000000000000000000000000066
:103664000000000000000000000000000000000056
:103674000000000000000000000000000000000046
:103684000000000000000000000000000000000036
:103694000000000000000000000000000000000026
:1036A4000000000000000000000000000000000016
:0836B40000000000000000000E
:04000005080026B118
:00000001FF
