:020000040800F2
:10000000000002202D2F00087D2F00080319000892
:100010007D2F0008FF180008E91800080000000004
:100020000000000000000000000000007D2F00081C
:100030007D2F0008000000007D2F00087D2F0008A4
:100040007D2F00087D2F00087D2F00087D2F0008E0
:100050007D2F00087D2F000835190008371900088A
:10006000391900083B1900083D1900087D2F0008C8
:100070007D2F00087D2F00087D2F00087D2F0008B0
:100080007D2F00087D2F00087D2F00081119000822
:10009000711800087D1800087D2F00083F1900081E
:1000A000291900082B1900082D1900087D2F0008B8
:1000B0001D1900081F190008211900087D2F0008CC
:1000C0007D2F00087D2F00087D2F00087D2F000860
:1000D0007D2F00087D2F00087D2F00087D2F000850
:1000E000411900080D1900087D2F00082F1900087C
:1000F00031190008331900087D2F00087D2F0008F2
:100100007D2F00087D2F0008231900087D2F00088F
:100110007D2F00087D2F00082519000827190008E9
:100120000B1900087D2F00087D2F00087D2F000887
:100130007D2F000800000000000000007D2F000857
:100140007D2F00087D2F00087D2F00087D2F0008DF
:100150007D2F00087D2F00087D2F00087D2F0008CF
:100160007D2F00087D2F00087D2F00087D2F0008BF
:100170007D2F00087D2F0008000000000000000017
:080180007D2F00087D2F00080F
:1001880010B5054C237833B9044B13B10448AFF3C9
:1001980000800123237010BD3405002000000000FA
:1001A800E837000808B5034B1BB103490348AFF310
:1001B800008008BD0000000038050020E83700086E
:1001C800034613F8012B002AFBD1181A013870478F
:1001D80081F0004102E000BF83F0004330B54FEAF0
:1001E80041044FEA430594EA050F08BF90EA020F5D
:1001F8001FBF54EA000C55EA020C7FEA645C7FEAF0
:10020800655C00F0E2804FEA5454D4EB5555B8BF12
:100218006D420CDD2C4480EA020281EA030382EA83
:10022800000083EA010180EA020281EA0303362D15
:1002380088BF30BD11F0004F4FEA01314FF4801CE8
:100248004CEA113102D0404261EB410113F0004FFA
:100258004FEA03334CEA133302D0524263EB4303B1
:1002680094EA050F00F0A780A4F10104D5F1200E4F
:100278000DDB02FA0EFC22FA05F2801841F10001AA
:1002880003FA0EF2801843FA05F359410EE0A5F17E
:1002980020050EF1200E012A03FA0EFC28BF4CF0AF
:1002A800020C43FA05F3C01851EBE37101F0004565
:1002B80007D54FF0000EDCF1000C7EEB00006EEB72
:1002C8000101B1F5801F1BD3B1F5001F0CD34908FC
:1002D8005FEA30004FEA3C0C04F101044FEA445253
:1002E80012F5800F80F09A80BCF1004F08BF5FEADA
:1002F800500C50F1000041EB045141EA050130BDBA
:100308005FEA4C0C404141EB010111F4801FA4F15C
:100318000104E9D191F0000F04BF01460020B1FAB1
:1003280081F308BF2033A3F10B03B3F120020CDAE9
:100338000C3208DD02F1140CC2F10C0201FA0CF0C7
:1003480021FA02F10CE002F11402D8BFC2F1200C2C
:1003580001FA02F120FA0CFCDCBF41EA0C019040E2
:10036800E41AA2BF01EB0451294330BD6FEA04042B
:100378001F3C1CDA0C340EDC04F11404C4F1200216
:1003880020FA04F001FA02F340EA030021FA04F328
:1003980045EA030130BDC4F10C04C4F1200220FA7F
:1003A80002F001FA04F340EA0300294630BD21FABD
:1003B80004F0294630BD94F0000F83F4801306BF83
:1003C80081F480110134013D4EE77FEA645C18BF77
:1003D8007FEA655C29D094EA050F08BF90EA020F0E
:1003E80005D054EA000C04BF1946104630BD91EA06
:1003F800030F1EBF0021002030BD5FEA545C05D109
:100408004000494128BF41F0004130BD14F5800447
:100418003CBF01F5801130BD01F0004545F0FE41BB
:1004280041F470014FF0000030BD7FEA645C1ABFF0
:10043800194610467FEA655C1CBF0B46024650EA27
:10044800013406BF52EA033591EA030F41F4002153
:1004580030BD00BF90F0000F04BF0021704730B5D9
:100468004FF4806404F132044FF000054FF00001AE
:1004780050E700BF90F0000F04BF0021704730B56F
:100488004FF4806404F1320410F0004548BF404244
:100498004FF000013EE700BF42004FEAE2014FEA99
:1004A80031014FEA02701FBF12F07F4393F07F4F74
:1004B80081F06051704792F0000F14BF93F07F4FA6
:1004C800704730B54FF4607401F0004521F00041E9
:1004D80020E700BF50EA010208BF704730B54FF06F
:1004E80000050AE050EA010208BF704730B511F074
:1004F800004502D5404261EB41014FF4806404F1AC
:1005080032045FEA915C3FF4DCAE4FF003025FEA2D
:10051800DC0C18BF03325FEADC0C18BF033202EBB5
:10052800DC02C2F1200300FA03FC20FA02F001FA0F
:1005380003FE40EA0E0021FA02F11444C1E600BFAE
:1005480070B54FF0FF0C4CF4E06C1CEA11541DBF61
:100558001CEA135594EA0C0F95EA0C0F00F0DEF82C
:100568002C4481EA030621EA4C5123EA4C5350EA11
:10057800013518BF52EA033541F4801143F4801362
:1005880038D0A0FB02CE4FF00005E1FB02E506F0F3
:100598000042E0FB03E54FF00006E1FB03569CF048
:1005A800000F18BF4EF0010EA4F1FF04B6F5007F4E
:1005B80064F5407404D25FEA4E0E6D4146EB0606C0
:1005C80042EAC62141EA55514FEAC52040EA5E5049
:1005D8004FEACE2EB4F1FD0C88BFBCF5E06F1ED8F3
:1005E800BEF1004F08BF5FEA500E50F1000041EB2A
:1005F800045170BD06F0004646EA010140EA0200D7
:1006080081EA0301B4EB5C04C2BFD4EB0C0541EAF8
:10061800045170BD41F480114FF0000E013C00F30D
:10062800AB8014F1360FDEBF002001F0004170BD31
:10063800C4F10004203C35DA0C341BDC04F114044A
:10064800C4F1200500FA05F320FA04F001FA05F2D6
:1006580040EA020001F0004221F0004110EBD370A3
:1006680021FA04F642EB06015EEA430E08BF20EACF
:10067800D37070BDC4F10C04C4F1200500FA04F372
:1006880020FA05F001FA04F240EA020001F0004104
:1006980010EBD37041F100015EEA430E08BF20EA77
:1006A800D37070BDC4F1200500FA05F24EEA020EBF
:1006B80020FA04F301FA05F243EA020321FA04F0EE
:1006C80001F0004121FA04F220EA020000EBD370A5
:1006D8005EEA430E08BF20EAD37070BD94F0000FA5
:1006E8000FD101F00046400041EB010111F4801FD9
:1006F80008BF013CF7D041EA060195F0000F18BF8A
:10070800704703F00046520043EB030313F4801FC5
:1007180008BF013DF7D043EA0603704794EA0C0F7F
:100728000CEA135518BF95EA0C0F0CD050EA410695
:1007380018BF52EA4306D1D181EA030101F0004112
:100748004FF0000070BD50EA410606BF104619463A
:1007580052EA430619D094EA0C0F02D150EA013646
:1007680013D195EA0C0F05D152EA03361CBF104687
:1007780019460AD181EA030101F0004141F0FE4126
:1007880041F470014FF0000070BD41F0FE4141F4AA
:10079800780170BD70B54FF0FF0C4CF4E06C1CEAAA
:1007A80011541DBF1CEA135594EA0C0F95EA0C0F5F
:1007B80000F0A7F8A4EB050481EA030E52EA03351A
:1007C8004FEA013100F088804FEA03334FF080553B
:1007D80045EA131343EA12634FEA022245EA111568
:1007E80045EA10654FEA00260EF000419D4208BF19
:1007F800964244F1FD0404F5407402D25B084FEAC6
:100808003202B61A65EB03055B084FEA32024FF471
:1008180080104FF4002CB6EB020E75EB030E22BFCE
:10082800B61A754640EA0C005B084FEA3202B6EB8E
:10083800020E75EB030E22BFB61A754640EA5C003D
:100848005B084FEA3202B6EB020E75EB030E22BFCD
:10085800B61A754640EA9C005B084FEA3202B6EBCE
:10086800020E75EB030E22BFB61A754640EADC008D
:1008780055EA060E18D04FEA051545EA16754FEAEF
:1008880006164FEAC30343EA52734FEAC2025FEA0D
:100898001C1CC0D111F4801F0BD141EA00014FF09C
:1008A80000004FF0004CB6E711F4801F04BF01436D
:1008B8000020B4F1FD0C88BFBCF5E06F3FF6AFAE89
:1008C800B5EB030C04BFB6EB020C5FEA500C50F119
:1008D800000041EB045170BD0EF0004E4EEA11319C
:1008E80014EB5C04C2BFD4EB0C0541EA045170BDA3
:1008F80041F480114FF0000E013C90E645EA060EE7
:100908008DE60CEA135594EA0C0F08BF95EA0C0F14
:100918003FF43BAF94EA0C0F0AD150EA01347FF45C
:1009280034AF95EA0C0F7FF425AF104619462CE733
:1009380095EA0C0F06D152EA03353FF4FDAE104696
:10094800194622E750EA410618BF52EA43067FF4E7
:10095800C5AE50EA41047FF40DAF52EA43057FF477
:10096800EBAE12E74A0011D212F5001211D20DD5E2
:100978006FF47873B3EB62520ED44FEAC12343F09D
:10098800004343EA505323FA02F070474FF0000047
:10099800704750EA013002D14FF0FF3070474FF0F6
:1009A80000007047014B1868704700BF4C0D0020CD
:1009B80010B409490C6924F440740C610C6944F4BE
:1009C80040740C610C6944F001040C6102604360DE
:1009D8005DF8044B704700BF003C0240074B1A69A2
:1009E80022F440721A611A6942F400721A611A6993
:1009F80042F001021A610160704700BF003C0240EA
:100A0800074B1A6922F440721A611A6942F480721B
:100A18001A611A6942F001021A610180704700BF29
:100A2800003C0240064B1A6922F440721A611A69A6
:100A38001A611A6942F001021A610170704700BF19
:100A4800003C0240204BDB6813F0100F07D01F4A10
:100A5800D36943F01003D36110221B4BDA601A4BA1
:100A6800DB6813F0200F07D0184AD36943F0080356
:100A7800D3612022144BDA60134BDB6813F0400F6C
:100A880007D0124AD36943F00403D36140220E4BC6
:100A9800DA600D4BDB6813F0800F07D00B4AD3697F
:100AA80043F00203D3618022074BDA60064BDB6810
:100AB80013F0020F07D0054AD36943F02003D3612E
:100AC8000222014BDA607047003C0240500D0020C2
:100AD800094B1B69002B01DB00207047064B074AB6
:100AE8005A6002F188325A601B69002B01DB002032
:100AF80070470120704700BF003C02402301674552
:100B0800034A136943F0004313610020704700BF94
:100B1800003C024038B504460022154BDA61FFF765
:100B280041FF0546134BDB6813F4803F0AD0B4F14C
:100B3800FF3FF7D0CCB1FFF735FF401B8442F1D21D
:100B4800032038BD0B4BDB6813F0010F02D00122E4
:100B5800084BDA60074BDB6813F0F20F01D1002075
:100B680038BDFFF76FFF012038BD032038BD00BF37
:100B7800500D0020003C02402DE9F0411D4C247E20
:100B8800012C03D102242046BDE8F081984617467F
:100B98000E4605460122174B1A764CF25030FFF7E5
:100BA800B9FF044698B9B5B1012D19D0022D1CD052
:100BB8003A4643463046FFF7FBFE4CF25030FFF70B
:100BC800A9FF04460C4A136923F0010313610022AC
:100BD800084B1A76D7E7F9B23046FFF723FFECE760
:100BE800B9B23046FFF70CFFE7E739463046FFF762
:100BF800F5FEE2E7500D0020003C0240074B1A6961
:100C080022F440721A611A6942F004021A611A69E0
:100C180042EA002040F4803018617047003C0240EE
:100C2800F9B101291FD0022918D04FF440710F4B98
:100C38001A6922F440721A611A690A431A611A6918
:100C480022F0F8021A611A6942EAC00040F0020074
:100C580018611A6942F480321A6170474FF40071C2
:100C6800E5E70021E3E74FF48071E0E7003C02404C
:100C7800164B1B6813F4007F10D0144B1A6822F42B
:100C880000721A601A6842F400621A601A6822F444
:100C980000621A601A6842F400721A600B4B1B68F3
:100CA80013F4806F10D0094B1A6822F480621A601E
:100CB8001A6842F480521A601A6822F480521A6044
:100CC8001A6842F480621A60704700BF003C024014
:100CD800F8B5224B1B7E012B02D102273846F8BDFE
:100CE8000E46044601221D4B1A764CF25030FFF78F
:100CF80011FF074670BB4FF0FF3333602368012BA9
:100D080016D0A568E368A26813449D4220D2217CCE
:100D18002846FFF785FF4CF25030FFF7FBFE104ADC
:100D2800136923F0FA031361074680B90135E9E72F
:100D38006168207CFFF762FF4CF25030FFF7EAFE53
:100D48000746074A136923F00403136100E035607E
:100D5800FFF78EFF0022014B1A76BFE7500D0020E7
:100D6800003C024070474368196841F00101F0B542
:100D780019601968C907FCD5002101270E29CCB2D2
:100D88000D463CD0D3F81C6207FA05F5354201F14F
:100D98000101F3D1D3F8001241F00101C3F80012A8
:100DA800D3F80C520121A1400D43C3F80C52D3F8DB
:100DB800045203EBC40452050D43C3F80452C4F8AB
:100DC8004022C4F844220289DAB1012A20D0D3F89B
:100DD8001C221143C3F81C12D3F8002222F001028E
:100DE800C3F800221A6822F001021A601A6822F079
:100DF80002021A601A68D207FCD40120F0BD002450
:100E0800C8E7D3F8142222EA0102C3F81422DEE765
:100E1800D3F814220A43F8E7D0F804220069101A1C
:100E280018BF01207047D0F80026D0F80C04101A1B
:100E380018BF012070474368C0F804141A6842F0CC
:100E48000102F0B51A601A68D407FCD50022012700
:100E58000E2AD4B215463BD0D3F81C6207FA05F522
:100E6800354202F10102F3D1D3F8002242F0010227
:100E7800C3F80022D3F80C520122A2401543C3F84C
:100E88000C52D3F8045203EBC40449051543C3F8C4
:100E98000452C4F84012C4F844120189D1B101299E
:100EA8001FD0D3F81C120A43C3F81C22D3F800221F
:100EB80022F00102C3F800221A6822F001021A6027
:100EC8001A6822F002021A601A68D207FCD4F0BD30
:100ED8000024C9E7D3F8141221EA0201C3F8141256
:100EE800DFE7D3F814121143F8E7D0F80404704789
:100EF800704710B5044602F03FF8204610BD10B503
:100F0800044602F039F8204610BD00000B4A0C498F
:100F18000260002202610281C0F804224281C0F806
:100F28000C22C160C0F80024C0F80812C0F80C24D4
:100F3800C0F80814C0F80026426070470838000856
:100F48005C3900084268536923F001035361704714
:100F5800038913B1012B06D070474268536943F0E7
:100F68000203536170474268536943F01003F8E77E
:100F780070B5BDF81460BDF81850012E23DC022DA1
:100F880021DC013B013A42EA0342BDF810304581B9
:100F9800013B42EA0352002541600681CD61CA61E6
:100FA800FFF7D6FF0289094B32B1012A08D04FF466
:100FB80000221A60012070BD4FF480121A60F6E713
:100FC8004FF40012FAE7002070BD00BF00E100E016
:100FD800D0F8F82143689A4210B51ED0D0F8F831FD
:100FE800C3EB0313034403F10802143352F8044B10
:100FF80041F8044B9A42F9D113880B8093788B708F
:10100800D0F8F83121220133B3FBF2F202EB42129D
:101018009B1AC0F8F831012010BD002010BD2DE941
:10102800FF410C460C30694690461F460A9EFFF762
:10103800CFFF00283DD09DF80850DDF80B30C8F8E8
:10104800005061193B60013D9DF809303360072D60
:101058002CD8DFE805F027221D18130E09049DF887
:10106800073001F8013C01399DF8063001F8013CD0
:1010780001399DF8053001F8013C01399DF804302B
:1010880001F8013C01399DF8033001F8013C0139B0
:101098009DF8023001F8013C01399DF8013001F852
:1010A800013C01399DF8003001F8013C04B0BDE86D
:1010B800F081C8F8000038603060F7E77FB54389F1
:1010C80003F11A020123934042689268934304464D
:1010D80040F0A280694600F50270FFF779FF00280A
:1010E80000F0958061896268090153180020C3F8EF
:1010F80080019DF80A00DDF80B4038B34748D3F863
:10110800805100EAC4002843C3F88001D3F8800165
:1011180040F00400C3F880019DF8090028B1D3F815
:10112800800140F00200C3F8800150180024C0F884
:101138008841C0F88C419DF80800441E072C50D8FF
:10114800DFE804F0473E352C241B1209D3F8800150
:1011580040EA4450DEE755189DF80760D5F88C4101
:1011680044EA0664C5F88C4155189DF80660D5F820
:101178008C4144EA0644C5F88C4155189DF8056031
:10118800D5F88C4144EA0624C5F88C4155189DF8D9
:101198000440D5F88C613443C5F88C4155189DF846
:1011A8000360D5F8884144EA0664C5F888415518B3
:1011B8009DF80260D5F8884144EA0644C5F888419C
:1011C80055189DF80160D5F8884144EA0624C5F809
:1011D80088410A449DF80010D2F888412143C2F89A
:1011E8008811D3F8842122F00F02C3F88421D3F8A0
:1011F800842100F00F001043C3F88401D3F8802144
:1012080042F00102C3F88021012004B070BD00BF84
:101218002046FFF797FEF7E70020F6E7F8FF0700FC
:10122800FFF74CBF7FB5D0F80024D0F80C329A42B3
:1012380004465FD0438903F11A02012393404268B0
:101248009268934356D10F220021684602F009F9AB
:10125800694604F50270FFF7BBFE638962681801EE
:1012680013180021C3F880119DF80A10DDF80B50FF
:10127800002941D02349D3F8806101EAC5013143EF
:10128800C3F88011D3F8801141F00401C3F880112C
:101298009DF8091029B1D3F8801141F00201C3F873
:1012A800801113180022C3F88821C3F88C21019AF1
:1012B800C3F88C216289636803EB0213009AC3F8B0
:1012C80088216289636803EB0213D3F8842122F032
:1012D8000F02C3F884219DF80820D3F8841102F086
:1012E8000F020A43C3F88421D3F8802142F0010297
:1012F800C3F8802104B070BDD3F8801141EA45518C
:10130800C4E700BFF8FF0700FFF78CBF2DE9FF41D6
:1013180004468846174600210F2268461E460A9D45
:1013280002F09FF804F581606946FFF751FE044614
:1013380080B19DF808203A60DDF80B3033609DF8E5
:1013480009302B606946404602F066F8204604B032
:10135800BDE8F081386030602860F7E742682123F3
:101368000132B2FBF3F303EB4313D21AD0F8F8318E
:10137800934230B513D04368C3EB031303440833D7
:1013880001F10C0451F8045B43F8045BA142F9D164
:101398000C881C80897899704260012030BD00203B
:1013A80030BD7FB5D0F80C42D0F800640134212557
:1013B800B4FBF5F505EB4515641BB44244D0002A8F
:1013C80042D0CDF80B30089B8DF808208DF80930F5
:1013D80011440023013A8DF80A30072A2CD8DFE897
:1013E80002F027221D18130E090411F8013C8DF88C
:1013F8000730013911F8013C8DF80630013911F830
:10140800013C8DF80530013911F8013C8DF80430A4
:10141800013911F8013C8DF80330013911F8013C0C
:101428008DF80230013911F8013C8DF8013001398D
:1014380011F8013C8DF80030694600F50270FFF79D
:101448008DFF012004B070BD0020FBE71FB50489A3
:101458008C423AD1436803EB0412D2F8B41101F07C
:101468000F018DF80810D2F8B8110091D2F8BC110C
:101478000191D2F8B011D2F8B02111F004011BBFCC
:10148800D208CDF80B20520D012214BF8DF80A2086
:10149800CDF80B2004F11B024FEA021208BF8DF8A9
:1014A8000A109A58C2F340028DF809207CB1012C29
:1014B80012D0D0F80434DDF80B209A4269460CBFEC
:1014C80000F581600C30FFF749FF04B010BDDA6801
:1014D80042F02002DA60ECE71A6942F020021A6151
:1014E800E7E7704710B5044601F046FD204610BDF9
:1014F800F0B587B001250024022306460F46019463
:10150800059302950495FFF7E3FA0B2C1AD047FAD6
:1015180004F3DA0714D5B6F9103003942341DB0736
:1015280007D4694601A8FFF7D3FB05FA04F3B08096
:101538003382B38823B1FFF7E3FA002007B0F0BD88
:101548000134E2E7FFF7DCFA0120F7E7F0B5002500
:101558009D4212DA0C8832F8156064BAA4B2A64229
:1015680001F1020706D0012381608681C48183804E
:101578000020F0BD01353946EAE7002383800120C9
:10158800F0BD10B584880C808168116082891A804A
:10159800029BC2891A808088B0FA80F0400910BD89
:1015A80010B5154B00200428C2B20BD0A3F5804417
:1015B800A14203D3994201D290B210BD013003F584
:1015C8008043F0E701F1774303F57F03B3F5803FEC
:1015D80010D30A4B0022072AD0B20BD0A3F500344F
:1015E800A14203D3994201D2053010BD013203F55F
:1015F8000033F0E710BD00BF0040000800000408F9
:10160800F8B516460546FFF7CBFF31440446284691
:10161800FFF7C6FF00210122844206DC02FA04F328
:101628001943013409B2A4B2F6E72846BDE8F840E8
:10163800FFF75EBF2DE9F0411F4605460E4690466E
:10164800FFF746FAB7F5807FA8BF4FF4807700BF51
:101658000024A3B2BB4213DA38F8142052BA314638
:1016680092B200230120FFF787FA80B2A8800236E1
:1016780001340028EDD0FFF743FA0020BDE8F081DF
:10168800FFF73EFA31462846FFF78AFFF11904466C
:101698002846FFF785FF0121844208DC2B8A01FADE
:1016A80004F223EA020301342B82A4B2F4E70120F6
:1016B800BDE8F081024A026000220282704700BF42
:1016C8003838000870B50646084B46F8483B0546CA
:1016D80000F24C64B44206D0A4F2046420462368A5
:1016E8001B6A9847F6E7284670BD00BF48380008CF
:1016F80010B50446FFF7E6FF204601F03DFC204602
:1017080010BD000038B5064D0024214601340122E1
:101718002846E4B200F0A8FA042CF6D1012038BD1E
:101728009C0B00202C4B1A6842F400722DE9F341FF
:101738001A601A68294D2A492A4C42F480621A60B4
:101748001A6842F480721A606A6C42F480426A64D1
:101758002A6C42F080522A640A6842F480420A6085
:10176800052280461A702046012100F04DFA022613
:1017780004272046002100F05FFAA8233A462046B5
:101788008DE8C0004FF4800100F098F9204601214F
:1017980000F052FA3146204600F03AF9002211468C
:1017A800204600F0A9F939460122204600F0A4F9A4
:1017B80032460321204600F09FF94046FFF7A2FF7A
:1017C8006B6C43F480436B64204600F0D9F988EDD4
:1017D800010A02B0BDE8F081003C02400038024036
:1017E800007000409C0B0020004870475005002006
:1017F8002DE9FF411F46194C194B002918BF1C46FB
:1018080080461646174801220D4600F04FFA226816
:1018180042F0010222602368DA07FCD540F2046333
:1018280003FB05850022BDF8283002924835019255
:10183800009332463B4621462846FFF799FB23682A
:1018480023F001032360236823F002032360236845
:10185800DB07FCD4284604B0BDE8F08100640040F2
:10186800006800409C0B002000210148FFF7EEBDF6
:10187800980500207047000010B5174B8CB09A6B84
:101888000A925A6B0B929B6A099303680193436807
:10189800029383680393C3680493036905934369B8
:1018A8000693836907934FF08042C3690893506A8F
:1018B8000A4B4CF25034516A091AA142FBD9506ABA
:1018C800196911F4005F596914BF21F4005141F4FA
:1018D80000515961EFE700BF00ED00E00008024049
:1018E8001EF0040F0CBFEFF30880EFF30980714678
:1018F800FFF7C2BF7047FFF7F3BFFFF7F1BF4830EC
:1019080070477047704700000148FFF789BC00BF67
:1019180098050020704770477047704770477047B8
:1019280070477047704770477047704770477047F7
:1019380070477047704770477047000010B5084BF4
:10194800036000230446436040220021083001F070
:1019580088FD04F14800FFF7D9FA204610BD00BF02
:101968004838000810B5054C2046FFF7E7FF204629
:10197800034A0449BDE8104001F000BB50050020AF
:1019880000000020CD160008704710B5044601F08D
:10199800F3FA204610BD00001B4B70B505461C46E7
:1019A80003609868686054F80C0F616805F10802D4
:1019B80003C2217A11701A4605F11C0452F8151F4A
:1019C800C5F8111012796A75AA76C5F8161003F1D0
:1019D8001A022A3310685168264603C608329A420A
:1019E8003446F7D1094C138833800FCC05F1300603
:1019F8000FC654F8043B33600FCC05F144060FC6FC
:101A080023683360284670BD5838000884380008B9
:101A1800064B9A6822F003020A439A6089009A6882
:101A280002F00C028A42FAD1704700BF0038024027
:101A3800034A536823F4800319435160704700BF79
:101A48000038024010B5032916D8DFE801F0020774
:101A58001727931E3D2B29D9002010BDA2F128037A
:101A6800B3F5C47FF8D814494B6823F4FF4323F037
:101A7800400343EA82124A60012010BDC31CD1B260
:101A880007309842E8D013F8014F8C42F9D10A493F
:101A98004B685208013A23F440330BE0931E0D2B98
:101AA800DAD805494B6823F0706303E002494B68B4
:101AB80023F03F031A43DEE7003802402DE9F041E6
:101AC800904604461F46069E079DFFF7B1FF424613
:101AD8000021FFF7B7FF3A4601212046FFF7B2FF82
:101AE800324602212046FFF7ADFF2A462046032151
:101AF800BDE8F041FFF7A6BF032917D0042928D075
:101B080091B9C31D1030984236D013F8011F914285
:101B1800F9D112B1013A42F0080218498B6823F052
:101B2800F00343EA02128A600120704700F11003B3
:101B38001530834220D013F8011F9142F9D10F4983
:101B48008B68501E23F4E05242F4805242EA80220D
:101B5800E9E700F115031A3083420DD013F8011F8D
:101B68009142F9D105498B6823F46043013A43F463
:101B7800004343EA4232D6E700207047003802406B
:101B88001D4A9368C3F38103012B0AD0022B0BD0A3
:101B9800DFED1A7A9FED1A0A002B18BFB0EE670A1C
:101BA80070479FED180A70475368DFED157ADFED2F
:101BB800156A13F4800F536803F03F0308BFF0EE73
:101BC800676A07EE903AF8EEE77A536886EEA76AF6
:101BD800C3F3881307EE103A5368C3F30143013384
:101BE8005B0007EE903AB8EEC77AF8EEE77A27EE90
:101BF800067A87EE270A7047003802400000000086
:101C08000024744B0024F44A0A4B1868002920F475
:101C1800803014BF4FF48032002242EA00021A607A
:101C280014BF00214FF400311A6802F400329142C7
:101C3800FAD07047003802400A4B1868002920F093
:101C4800807014BF4FF08072002242EA00021A60CE
:101C580014BF00214FF000711A6802F0007291421F
:101C6800FAD070470038024030B50E4B15460C4686
:101C78000FCB87B00DF1180E0EE90F000EEB8404A0
:101C8800094A54F8103C106B002D20EA030014BFD9
:101C98001946002101431163126C13400193019B03
:101CA80007B030BDAC3800080038024008480029A9
:101CB800036C0CBF6FF000716FF0806101EA0301E3
:101CC8000CBF19231A239A400A430264704700BFC5
:101CD8000038024010B5054C2046FFF75DFE20464F
:101CE800034A0449BDE8104001F048B99C0B0020A4
:101CF800000000209119000841617047C06A03681C
:101D08000A461B6840F2FF71184738B50446406818
:101D180080B1257D6DB903685B6898472369E268DF
:101D2800934208D2904203D2984234BF002501253D
:101D38002575207D38BD904205D3984234BF0020D8
:101D480001202075F5E70120FBE7806870470368EC
:101D580081605B681847704790F8640070470368B3
:101D680010B51B6804469847A0B1B4F86630226ED7
:101D7800D05CE28901339BB29A42A4F866300BD159
:101D88000023637384F8653084F86430A4F86630FF
:101D9800E38110BD4FF0FF3010BD704710B5044609
:101DA80001F0EAF8204610BD38B504464068A8B1ED
:101DB8000023237503685B689847A568E0600544BD
:101DC8006068256103681B699847854206D9606881
:101DD80003681B6998472369181A206138BD0000F9
:101DE800064A0260064A82660022C26602674267A5
:101DF800826780F87C208260704700BF0039000845
:101E08006C39000870470000F7B5816000211C4656
:101E1800017380F86410A0F8661080F8651041829C
:101E280001744173C18100F1140300F1600503F8E6
:101E3800011BAB42FBD11368036600F16805C46659
:101E48002846FFF7B1FF236820461B689847089883
:101E58008DED000BFEF7FEFA9DED000B06460F46D2
:101E68000BA3D3E9002351EC100BFEF793FC0246B9
:101E78000B4630463946FEF763FBFEF773FD014615
:101E88002846FFF764FF03B0F0BD00BFAFF3008042
:101E98000000000080842E4141607047806803681C
:101EA8000A461B6840F2FF71184773B50D46BDF826
:101EB8002060BDF818108C199C421046BDF81C20F3
:101EC8001CDB140A99428DF804408DF8052012DABB
:101ED8005C1A22460144284601F09EFA002301A913
:101EE80025440022341B0B44A2420FDA995C05F802
:101EF800011B0132F8E7CB1A0024F0E7014432460F
:101F0800284602B0BDE8704001F086BA02B070BD44
:101F18002DE9F04F80468BB08B461746002A7ED0BD
:101F28001FFA82FA5146584600F029FD0AF10205C7
:101F3800C7F307234FF000092DB2069007934E46CA
:101F4800002DB8F8803063DD1FFA89F000280CBF37
:101F580004240724AC422246A8BF2A46059209F069
:101F68007F0242EAC3138DF820304FF000038DF84A
:101F78002130BDF8141000283BD1042D12DD2B1F91
:101F8800072293FBF2F2C2EBC20293421CBF01226A
:101F98008DF82120072293FBF2F39DF821201344AA
:101FA8008DF821309DF81C308DF82230069B019366
:101FB800B3B2029100935A46534609A940468DF898
:101FC8002370FFF772FF059B1A1DD8F8080000213F
:101FD80003680091DB6808A91C46D8F80430A047BC
:101FE800BDF814402D1B34442DB226B209F1010965
:101FF800A6E7069B0193B3B2029100935A46534653
:102008000DF121014046FFF750FF059B5A1CDCE704
:10201800013303F00103023EA8F8803037B2384696
:102028000BB0BDE8F08F70B5438A88B004465BB941
:10203800A06805AA036800929D6804AA03AB06A9D4
:10204800A84798B908B070BD6830FFF75EFE002851
:10205800EED0002323736382237404F1140204F185
:10206800600102F8013B8A42FBD1E1E7049B013B96
:10207800072BE7D89DF81820049302F07F054B2D15
:10208800E0D8D309DED104F16800FFF78DFE002DFA
:1020980035D1012323739DF819309DF81A206373F5
:1020A8009DF81B30206E43EA0223049AE381033A29
:1020B80007A9049201F0B0F9049B617B6382153192
:1020C80001332375257404F1150321448B420BD089
:1020D80013F8010B0028F9D0628A013A024462829F
:1020E800227C01322274F1E76FF01201013B091BD7
:1020F8000022C8184B281EDC03F8012FF9E7237BC0
:1021080013B1637B9D429DDC6619049A307D618A18
:10211800002840D1237C013323745318206E638236
:10212800C5EBC505033D0DF11901284401F074F90B
:10213800049B01333375237B002B83D0227C637B84
:102148009A427FF47FAFE189628A8B1C9A427FF4BE
:1021580079AF206E00F013FC628A236E134413F8E3
:10216800022C13F8013C43EA022398427FF46AAF39
:10217800012384F864300023A4F8663084F86530BD
:1021880023736382237404F11402603402F8013B60
:10219800A242FBD156E7531C0B441B1ABEE7FFF7BC
:1021A80042BFC1607047000010B5094B044640F8B3
:1021B800103B00F041FA04F58A6000F06BFB002345
:1021C800C4F84844A360E360A380204610BD00BF64
:1021D8001839000870B5044680680D46E8B14A68A9
:1021E800A38811898B4204D0B4F95666002EF9DC15
:1021F8000B46A380118901F5C061FFF77DFD6B686F
:10220800A068198901F5B061FFF778FD04F58A60C7
:10221800294600F070FB002070BD012070BD10B58C
:1022280004460846A36833B1E16831B100F056F8B6
:102238000020E06010BD012010BD022010BD10B5C7
:10224800044600F58A6000F031FB04F11000BDE897
:10225800104000F07EBA000010B5064B036004463B
:1022680000F58A6000F00FFB04F1100000F0B4F9EB
:10227800204610BD1839000810B50446FFF7ECFFDA
:10228800204600F079FE204610BD704710B5044680
:1022980000F072FE204610BD38B5054608460C46CB
:1022A800FDF78EFFB5F90A30421CC3F580708242F3
:1022B80038BF10B203F106026B6828BF00B203EB07
:1022C8004203013C14F8012F12B123F8022BF9E75D
:1022D8001A806B89013303446B8138BD4968002338
:1022E80030B503814468438171B1B1F900300222ED
:1022F800023393FBF2F300229A4208D031F81250CD
:1023080024F812500132F7E74FF0FF33EFE730BD02
:10231800416810B50A88002352081846934204DA27
:1023280031F8134001336040F8E710BD01207047D1
:102338000120704704307047B0F90A30426806330C
:1023480010B55B0004461380FFF7E2FF62683AB1FC
:10235800B2F90030022193FBF1F322F8130010BD0B
:102368004FF0FF33F6E70000F8B52A4B03602A4B1D
:1023780043600025294BC0F830320446C0F84C347D
:10238800C0F83452A0F83A52A0F83852C0F8505465
:10239800A0F85654A0F8545400F25C4000F04CF9F0
:1023A80004F69C0000F076FA04F6A820FFF7FCFE7D
:1023B80041F20812A31804F1220640F20E27184928
:1023C800A15030465D609D60DD601D611D753A4617
:1023D8002946A581656125832561E5612584A4F8E1
:1023E800585401F03EF8C4F8346204F23E26A4F8CA
:1023F8003852A4F83A523A462946304601F031F8A4
:10240800C4F85064A4F85454A4F85654C4F8944832
:102418002046F8BD2C3900089C3900088C39000882
:102428006C39000800F50C70FFF736BF38B5D0F8E6
:102438005034B0F858249A80B0F858240132A0F8E3
:10244800582400F24C4582891A810446598128464D
:10245800FFF772FF294604F69C00BDE8384000F0FB
:102468004ABA38B5D0F83432028C9A8082891A81F7
:1024780000F50C75044659812846FFF75DFF29468B
:1024880004F69C00BDE8384000F035BA38B50A4675
:102498000446002945D04B6885891889854205D0AE
:1024A80004F6A820BDE83840FFF794BEE16911B9E9
:1024B8009988013121849988208CE261884207D16A
:1024C80004F50C7104F69C00BDE8384000F013BA1E
:1024D8002184B3F90A3021695B1A02D4218B8B421B
:1024E80006DB20466FF02901BDE83840FFF7B9BF89
:1024F800616951F82350002DF3D0D4F83412002329
:102508004B81208C8880A0890881A4F83A32204623
:102518001381A84704F50C752846FFF70DFF2946D7
:10252800D0E738BD70B5044600F25C45284600F097
:1025380010F90528FAD004F69C0504F6A8262846C2
:1025480000F0B4F904F50C743046FFF778FE214624
:102558003046FFF764FE28B921462846BDE870409A
:1025680000F0C9B970BD0000F7B541F2041600F5D6
:10257800885481510546E160083420461746FFF724
:1025880013FCA85903681B68984738468DED000B63
:10259800FDF760FF9DED000B06460F460CA3D3E93F
:1025A800002351EC100BFEF7F5F802460B463046B7
:1025B8003946FDF7C5FFFEF7D5F901462046FFF776
:1025C800C6FBC5F8984803B0F0BD00BFAFF3008064
:1025D8000000000080842E41704710B5044600F0CA
:1025E800CBFC204610BD10B50446FFF791FE62688B
:1025F80052B1B2F90030022193FBF1F332F81330F3
:102608001B1A5842584110BD4FF0FF33F3E7B0F999
:102618002C340D2B0DDDD0F824243AB1B2F900008A
:1026280001309842ACBF0020012070474FF0FF30C6
:10263800F6E700207047000038B5104B0360002112
:1026480004460F4BC0F82034051DA0F82A14A0F842
:102658002814A0F82C14A0F82E1480F83014C0F810
:102668003414C0F83814C0F83C1440F21C42284610
:1026780000F0F7FEC4F82454204638BD3839000865
:102688008C390008B0F92C24002A30B519DD013A3C
:10269800031DA0F82C2400210225B0F92C2492FB5C
:1026A800F5F4A14208DA5A881C88120242EA142278
:1026B80023F8022B0131F0E7D20742BF1A88120A29
:1026C8001A8030BDD0F8343470B50446002B3FD0A2
:1026D8000226D4F8340403681B689847002837D0CA
:1026E800B4F92C54B5F5037F23DB70BD03685B6830
:1026F8009847B4F92C3493FBF6F304EB43039A8818
:1027080042EA00209880B4F82C340133A4F82C3421
:10271800D4F83C34002BDCD0D4F8340403681B68AC
:1027280098470028D5D1D4F83C0403685B689847DB
:10273800CFE715F0010FD4F83404D7D103685B68EC
:10274800984795FBF6F504EB4505C0B2A880DAE793
:1027580070BD70B50446FFF7B5FFB4F92C34002BF3
:1027680019DDD4F83C04B0B103681B68984790B1F0
:1027780004F5846601252046FFF784FF2046FFF70D
:1027880046FF10B33046FFF72EFF38B3D4F83C04A9
:1027980003685B68984704F584650126B4F92C340E
:1027A800012B2BDDD4F824341B88DA0722D594F8C2
:1027B800303433B9B4F82E3484F830640133A4F8D3
:1027C8002E342046FFF75EFFE8E7B4F92C340D2BD2
:1027D80004DCA4F82C040126304670BD94F830348B
:1027E800002BC8D1B4F82E3484F830540133A4F83F
:1027F8002E34C0E70C3BB3F5007FD8D82046FFF74E
:1028080006FF20B12846FFF7EEFE0028CFD020466D
:10281800FFF7FDFE08B90226DEE7D4F838040023E6
:1028280084F8303450B3036804F584611B68984712
:102838000526D4F824341BB3B3F90050B4F92C247A
:102848000235ADB229B291420BDC521A201D022387
:10285800013291FBF3F192FBF3F200EB410100F03E
:10286800E6FDB4F82C34D4F83C045D1BA4F82C54D1
:102878000028B1D003685B689847ADE70326D8E71E
:102888004FF0FF35DAE7704710B5044600F074FBE7
:10289800204610BD044A02600022A0F80422A0F8D5
:1028A8000622C0F8082270474839000838B504469F
:1028B800D0F80802F0B1B4F90432B4F90622056878
:1028C8009918B1F5007FC8BFC3F5007204F104017F
:1028D8001944C8BF12B2ED68A847B4F8043280B2F0
:1028E8000344C3F30803A4F80432B4F80632181AF0
:1028F800A4F8060238BD2DE9F843D0F80832054699
:10290800DBB34E687EB3B6F9004002340227002CD0
:1029180033DD2846FFF7CAFFB5F90612C1F5007284
:10292800A242A6F1020E4FF00000A8BF224692FB79
:10293800F7FC60451ADAB5F90432BEF802900B4488
:1029480003EB4003C3F30808A844013388F8049054
:102958003EF8028FC3F308032B444FEA182883F884
:1029680004800130E5E74FF0FF34CEE71144A5F8C5
:102978000612A41A06EB4C06C9E7BDE8F88310B5A1
:10298800024601444FF6FF708A420ED012F8013B0E
:1029980083EA102383EA13139CB243EA002383EAF1
:1029A800043383EA441398B2EEE710BD0120704760
:1029B800014B012018707047F40B00200000000044
:1029C8009FED010B704700BF0000000080842E417E
:1029D8004FF08043586A70470020704770474FF0A7
:1029E800FF307047704770477047000008B50349CB
:1029F800FFF718FD024B0120587008BDD0390008B8
:102A0800F40B002008B50349FFF70CFD024B012029
:102A1800587008BDD6390008F40B00200246B0F9FA
:102A280008305168981D013331F810001381704740
:102A38000246B0F908305168981D023351F8100069
:102A4800138170470246B0F908305168981D023367
:102A580051F810001381704770B50546C069FFF73B
:102A6800F1FF0446E869FFF7E3FF0646FEF730F892
:102A7800013E0AD4E869FFF7D1FF214682B200235C
:102A88000120FEF779F80234F2E7FEF739F8012061
:102A980070BDB0F90A304268063322F81310438932
:102AA80001334381704770B50446C069FFF7CAFF18
:102AB8000646E069FFF7BCFF04F50C740546013DC6
:102AC80005D436F8021B2046FFF7E3FFF7E701209D
:102AD80070BD000030B587B00023ADF80E30ADF8FA
:102AE8001030ADF812300DF11203044605AA009318
:102AF8000DF10E0104AB1348FEF743FD04F50C7508
:102B080081B22846FFF7C5FFBDF80E102846FFF72B
:102B1800C0FFB4F93A32D4F834220599063328466E
:102B280042F81310B4F83A32BDF810100233A4F882
:102B38003A32FFF7AEFFBDF812102846FFF7A9FF9B
:102B480007B030BDF80B002038B50446C069FFF760
:102B580079FF0546E069FFF76BFF294602460448FE
:102B6800FEF74EFD2046FFF7B5FF012038BD00BF38
:102B7800F80B00202DE9F0430446ADF20C4DC06976
:102B8800FFF760FF0090E069009FFFF751FF019099
:102B9800E069FFF743FF0026814602AD019B1FFA5B
:102BA80086F8984506F1010605DAE069FFF736FF71
:102BB80025F81800F2E7019B0B482A463946FEF72C
:102BC80039FD40B1B9F1000F05D0019B06482A46EE
:102BD8003946FEF7BBFC2046FFF77CFF01200DF2CB
:102BE8000C4DBDE8F08300BFF80B00202DE9F04143
:102BF8000446ADF5007DC069FFF724FF8046E06913
:102C0800FFF716FF00250646AFB2B74205F10105EA
:102C180005DAE069FFF702FF2DF81700F4E73346FD
:102C28006A4641460548FEF791FC2046FFF752FFE9
:102C380001200DF5007DBDE8F08100BFF80B0020F4
:102C480010B5054C2046FEF735FD2046034A0449D9
:102C5800BDE8104000F092B9F80B002000000020F9
:102C6800EB1400082DE9F04FADF59E5D85B0524B91
:102C7800059328AB069307AB18460393FFF7B0F804
:102C8800FEF7B2FD0223009303220B230021FEF777
:102C9800AFFD4A4B009306AA05AB01460398DFF83F
:102CA80034B1474FFFF7B0F84FF4C0610398ACAEAA
:102CB800FFF7F4F84FF4B0610398FFF7EDF83046EA
:102CC800FFF752FB039BC6F89038C6F8A43A0DF5F7
:102CD8009D53103300251D603A4B73614FF08044BB
:102CE8004FF4FE433361384A3572092305A930464B
:102CF800C6F8B05AC6F8EC5EB5813383FFF734FCEA
:102D0800D4F82490D4F824A0636ADFF8CC80A3EB2D
:102D180009035B450DD998F8013053B90135EDB277
:102D2800032DD4F8249004D840F2FF713046FFF701
:102D38007DFB636A214AA3EB0A0393420BD9D4F8BB
:102D480024A03B6913F4005F7B6914BF23F400538C
:102D580043F400537B613046FFF7E4FB0398FFF729
:102D68001EFAFEF741FDFEF7CAFDFEF7CDFA98F808
:102D780000300BB9032DC7DD144B1B68013304D198
:102D8800012388F801300025BEE7114B33600DF6AA
:102D98005850FFF761FA0DF64C30FFF774FD0DF24D
:102DA8000C70FFF719FC0398FFF72CF80DF59E5DE2
:102DB80005B0BDE8F08F00BFB0390008A08601005B
:102DC800000802400400002020A10700004000087D
:102DD8002C39000840420F00F40B0020B0B500AFBA
:102DE800FEF702FDFEF79EFC334A344C536A43F467
:102DF800E0235362236C43F0010323644FF08043C4
:102E080053229A624FF0FF32DA625A6942F00102A5
:102E18005A611A6842F001021A601A6842F0800288
:102E28001A6003F50233A3F50063D3F8002842F0D3
:102E38008062C3F80028D3F8082842F04062C3F83B
:102E480008281A6842F400021A601A6842F00072F0
:102E58001A605A6A42F410425A625A6A42F41022BC
:102E68005A629A6842F440029A609A6842F0407244
:102E78009A60FFF7F7FE4FF6FF73FF222362626244
:102E880023610F4B2361F12363610123A3610D4B80
:102E980023620D4B63620D4B0D4A00251D605D607A
:102EA8009D600C4B2562656225611B68126882F380
:102EB800088898472846B0BD00ED00E00038024079
:102EC800FF116022FFC9FE363359070010E000E009
:102ED80000400008044000080F49D1F8883043F446
:102EE8007003C1F888300D4B1A6842F001021A606D
:102EF800002098601A6822F0847222F480321A60E6
:102F0800074A5A601A6822F480221A60D8604FF083
:102F180000638B60704700BF00ED00E0003802409E
:102F280010300024DFF834D0002103E00C4B5B584C
:102F3800435004310B480C4B42189A42F6D30B4AC3
:102F480002E0002342F8043B094B9A42F9D3FFF709
:102F5800C3FF00F01FF8FFF741FF70470000022091
:102F6800083A00080000002034050020340500203D
:102F7800800D0020FEE7000000F038B80B4601463F
:102F8800184600F001B800BF13460A460146022061
:102F980000F08CBA70B50D4E0D4CA41BA410002582
:102FA800A54209D10B4E0C4C00F01AFCA41BA4102E
:102FB8000025A54205D170BD56F825309847013542
:102FC800EEE756F8253098470135F2E7F43900085E
:102FD800F4390008F4390008043A0008024B0146A5
:102FE800186800F00BB800BF40040020024B0146EF
:102FF800186800F027BB00BF400400202DE9F74FF8
:1030080001F10B04162C814607D934F0070405D5C5
:103018000C23C9F80030002631E110248C42F7D384
:10302800484600F027FAB4F5FC7F9C4D36D204F1EF
:1030380008022A44A2F1080156688E424FEAD403D6
:1030480002D1D668B24210D07368F268B16823F032
:103058000303CA60334491605A6842F001025A601F
:10306800484600F00DFA083609E102338C4A2E6909
:10307800964211466DD0706820F00300071B0F2F91
:1030880047DD331944F0010474606B612B61DA6029
:103098009A6047F001025A603750E1E7630A2AD084
:1030A800042B12D8A30938335A1C05EBC202A2F12B
:1030B80008005668864206D0726822F00302111B87
:1030C8000F291CDD013B0133D0E7142B01D85B33FA
:1030D800EAE7542B02D8230B6E33E5E7B3F5AA7F52
:1030E80002D8E30B7733DFE740F25452934204D817
:1030F800A30C7C33D8E73F23D6E77E23D4E7002907
:10310800F16804DBB368D9608B60B318A4E70E4696
:10311800D0E7002F6A612A6105DB3044436843F039
:10312800010343609CE7B0F5007F44D2C0088710D4
:10313800012202FA07F76A6801303A436A6005EB30
:10314800C00255F83070B760083AF26045F8306050
:10315800FE6001209A1000FA02F26868824200F2CA
:10316800A180024206D123F003035200024203F178
:103178000403FAD005EBC30CE0469E46D8F80C6071
:10318800464553D10EF1010E1EF0030F08F1080851
:10319800F4D1980779D16B6823EA02036B606868F9
:1031A800520082427ED8002A7CD073460242E1D186
:1031B80004335200FAE7420A042A15D88209383241
:1031C800571C05EBC20E55F83770BE4526D10120B5
:1031D800921000FA02F2686810436860C6F80CE0C2
:1031E800B760CEF80860B3E7142A01D85B32E7E786
:1031F800542A02D8020B6E32E2E7B2F5AA7F02D84F
:10320800C20B7732DCE740F25457BA429ABF820CBD
:103218007C327E22D4E7BF68BE4504D07A6822F0AB
:1032280003029042F7D3D7F80CE0D7E77068F76845
:1032380020F00300A0EB040ABAF10F0F10DDB2680A
:10324800331944F001047460D760BA604AF001028F
:103258006B612B61D96099605A6046F800A0FFE65F
:10326800BAF1000F0FDB3044436843F001034360B9
:1032780056F8083F4846DF60BB6000F001F9304669
:1032880003B0BDE8F08F3E467AE75CF8080984454C
:1032980003F1FF333FF47DAF81E700BF2C0000202E
:1032A80034000020D5F808B0DBF8046026F00306E7
:1032B800B44203D8331B0F2B00F396804F4A17688C
:1032C8004F4A1168103701310BEB0603274405D02C
:1032D8004C4901390F44013149420F4039464846AB
:1032E8000192009300F0D2F8B0F1FF3F804656D02B
:1032F800009B019A834201D9AB4550D142480168ED
:10330800434507EB010EC0F800E04049824613D15F
:103318000B4211D1AB683E4446F001065E603C4A60
:10332800DAF8003011688B4288BF1360394A116897
:103338008B4288BF136032E0106801301BBFA8EBD6
:1033480003037344C2F80080CAF8003018F007007D
:103358001CBFC0F1080080442A4B474418440F4062
:10336800C71B3946484600F091F8431C08BF404641
:10337800DAF80030C5F8088008BF0027A0EB08007D
:103388003B44074447F00107AB45CAF80030C8F88A
:103398000470C4D00F2E10D80123C8F80430AB68CD
:1033A8005A6822F003029442A2EB040301D80F2BBF
:1033B8001ADC484600F064F82DE6DBF804300C3ED1
:1033C80026F0070603F001033343CBF804300BEB78
:1033D800060305220F2E5A609A60A0D90BF1080146
:1033E800484600F02FF99AE7AE6844F001023444E9
:1033F80043F001037260AC60636031E63C0C00206E
:1034080034040020001000000C0C0020FF0F000006
:10341800340C0020380C002010B5431E0A44914299
:1034280000D110BD11F8014B03F8014FF7E78842AE
:1034380010B501EB020303D8421E99420CD110BD0E
:103448009842F9D28118D21AD34200D110BD13F88C
:10345800014D01F8014DF7E711F8014B02F8014F52
:10346800EBE702440346934200D1704703F8011B7F
:10347800F9E70000014800F0A1B900BF740D002071
:10348800014800F09DB900BF740D002038B5064C06
:10349800002305460846236000F094F9431C02D136
:1034A800236803B12B6038BD7C0D00202DE9F0475F
:1034B800354D8046286899460F46924600F07EF9B9
:1034C800324B1E68B46C3CB9314B06F14C04B46401
:1034D80013B11B68C6F8D43063681F2B46DD2D4B2B
:1034E80033B9286800F06CF94FF0FF30BDE8F08779
:1034F8008C20FFF773FD04460028F2D0B36C0360FC
:1035080000224260B064C0F88820B8F1000F21D0D2
:103518004FF48470FFF762FD90B30023C0F80031C8
:10352800C0F80431C4F88800626840F822A001237A
:10353800934000EB8201D0F800211A43B8F1020F42
:10354800C0F80021C1F8809002BFD0F804211343CD
:10355800C0F80431636828685A1C0233626044F872
:10356800237000F02DF90020BDE8F087B8F1000FB6
:10357800F0D0D4F888000028D6D1064B002BC7D14C
:10358800286800F01CF9AFE73C040020E83900087F
:10359800E4390008E52F00082DE9F843254FDFF846
:1035A800A08089460646FFF765FFBB685D68A8F1FD
:1035B800110425F00305A4EB09042C44B4FBF8F42A
:1035C800013C08FB04F4444505DA3046FFF758FF90
:1035D8000020BDE8F88300213046FFF757FFBB689D
:1035E8002B449842F1D161423046FFF74FFF01303A
:1035F80010D100213046FFF749FFBA68831A0F2B14
:10360800E3DD0D490968401A0C4943F001030860DD
:103618005360DAE7BB68094A2D1B45F001055D6078
:10362800136830461C1B1460FFF72AFF0120BDE811
:10363800F88300BF2C000020340400200C0C00206C
:10364800001000002DE9F04104468846002900F0EA
:10365800AB80FFF70FFF58F8042C544D22F00100FF
:10366800A8F108031F18A9687E688F4226F0030690
:1036780002F001021BD130443AB958F8082C9B1AC1
:1036880010449968DA68CA60916040F001025A6093
:10369800AB60474B1B68984204D3464B20461968D9
:1036A800FFF77AFF2046BDE8F041FFF7E9BE7E60EC
:1036B800002A39D158F8081C5B1A0844996805F1A2
:1036C800080E714532D0D3F80CE0C1F80CE0CEF802
:1036D8000810B9194968C9070AD43044B9683ABB0F
:1036E800354EB14224D16B612B610122D9609960BA
:1036F80040F0010159601850002AD3D1B0F5007F7D
:103708001AD2C008811001228A40696801300A4330
:103718006A6005EBC00255F830109960083ADA6023
:1037280045F83030CB60BDE70022D2E70122D0E770
:10373800FE68CE60B160DBE7420A042A13D882092A
:103748003832511C05EBC20655F831108E4224D18F
:103758000120921000FA02F2686802436A60DE6093
:103768009960B360DEE7142A01D85B32E9E7542A8E
:1037780002D8020B6E32E4E7B2F5AA7F02D8C20B78
:103788007732DEE740F254518A429ABF820C7C328B
:103798007E22D6E789688E4204D04A6822F0030266
:1037A8009042F7D3CE68DAE7BDE8F0812C0000201C
:1037B800380400203C0C002034000020704770477B
:1037C80070470000044B1968024609B9034919609B
:1037D800186802441A607047480D0020800D0020C8
:1037E800F8B500BFF8BC08BC9E467047F8B500BFE6
:0837F800F8BC08BC9E467047B6
:1038000000000000000000006F0D0008210E0008FD
:1038100027100008AB1300082F0E0008151300082E
:103820003F0E0008F30E00086D0D0008070F00089A
:103830000000000000000000EB140008ED14000878
:103840000000000000000000CD160008F916000876
:103850000000000000000000911900089319000802
:10386000020406080001020304050607080001021D
:103870000304010002000400080010004000800062
:10388000000100021038024014380240183802408B
:103890002038024024380240303802403438024098
:1038A00038380240403802404438024001000000ED
:1038B00002000000040000000800000010000000EA
:1038C00000000200000004000000080000001000DA
:1038D00020000000001000000040000000800000F8
:1038E00000010000000100000001000000010000D4
:1038F00000020000000400000000000000000000C2
:10390000611D0008671D0008A31D0008191F00089D
:103910000000000000000000AB2100086122000848
:10392000812200080000000000000000952400082B
:103930000000000000000000E1250008E325000869
:103940000000000000000000FF2800088F28000889
:10395000912800080000000000000000F90E000897
:10396000FB0E00080000000000000000131D00080E
:10397000B11D0008531D0008571D00085F1D0008F9
:10398000A51D0008000000000000000093220008B0
:103990009522000800000000000000003523000808
:1039A000392300083D23000800000000000000004B
:1039B000C9290008D9290008E1290008E5290008DB
:1039C000E7290008ED290008EF290008F12900087F
:1039D000302E302E3100426F6F744C6F616465720F
:0C39E00000000000400C00204404002007
:0839EC0094F5FF7F01000000CB
:1039F400AD0100086D190008DD1C0008492C000801
:043A0400890100082C
:103A080000000000F52900080D2A0008612A0008B6
:103A1800AF2A0008B5290008512B00087D2B0008A3
:103A2800F52B0008B929000800000000000000007C
:103A3800000000002C0000202C0000203400002092
:103A4800340000203C0000203C00002044000020FE
:103A5800440000204C0000204C00002054000020AE
:103A6800540000205C0000205C000020640000205E
:103A7800640000206C0000206C000020740000200E
:103A8800740000207C0000207C00002084000020BE
:103A9800840000208C0000208C000020940000206E
:103AA800940000209C0000209C000020A40000201E
:103AB800A4000020AC000020AC000020B4000020CE
:103AC800B4000020BC000020BC000020C40000207E
:103AD800C4000020CC000020CC000020D40000202E
:103AE800D4000020DC000020DC000020E4000020DE
:103AF800E4000020EC000020EC000020F40000208E
:103B0800F4000020FC000020FC000020040100203C
:103B1800040100200C0100200C01002014010020E9
:103B2800140100201C0100201C0100202401002099
:103B3800240100202C0100202C0100203401002049
:103B4800340100203C0100203C01002044010020F9
:103B5800440100204C0100204C01002054010020A9
:103B6800540100205C0100205C0100206401002059
:103B7800640100206C0100206C0100207401002009
:103B8800740100207C0100207C01002084010020B9
:103B9800840100208C0100208C0100209401002069
:103BA800940100209C0100209C010020A401002019
:103BB800A4010020AC010020AC010020B4010020C9
:103BC800B4010020BC010020BC010020C401002079
:103BD800C4010020CC010020CC010020D401002029
:103BE800D4010020DC010020DC010020E4010020D9
:103BF800E4010020EC010020EC010020F401002089
:103C0800F4010020FC010020FC0100200402002037
:103C1800040200200C0200200C02002014020020E4
:103C2800140200201C0200201C0200202402002094
:103C3800240200202C0200202C0200203402002044
:103C4800340200203C0200203C02002044020020F4
:103C5800440200204C0200204C02002054020020A4
:103C6800540200205C0200205C0200206402002054
:103C7800640200206C0200206C0200207402002004
:103C8800740200207C0200207C02002084020020B4
:103C9800840200208C0200208C0200209402002064
:103CA800940200209C0200209C020020A402002014
:103CB800A4020020AC020020AC020020B4020020C4
:103CC800B4020020BC020020BC020020C402002074
:103CD800C4020020CC020020CC020020D402002024
:103CE800D4020020DC020020DC020020E4020020D4
:103CF800E4020020EC020020EC020020F402002084
:103D0800F4020020FC020020FC0200200403002032
:103D1800040300200C0300200C03002014030020DF
:103D2800140300201C0300201C030020240300208F
:103D3800240300202C0300202C030020340300203F
:103D4800340300203C0300203C03002044030020EF
:103D5800440300204C0300204C030020540300209F
:103D6800540300205C0300205C030020640300204F
:103D7800640300206C0300206C03002074030020FF
:103D8800740300207C0300207C03002084030020AF
:103D9800840300208C0300208C030020940300205F
:103DA800940300209C0300209C030020A40300200F
:103DB800A4030020AC030020AC030020B4030020BF
:103DC800B4030020BC030020BC030020C40300206F
:103DD800C4030020CC030020CC030020D40300201F
:103DE800D4030020DC030020DC030020E4030020CF
:103DF800E4030020EC030020EC030020F40300207F
:103E0800F4030020FC030020FC030020040400202D
:103E1800040400200C0400200C04002014040020DA
:103E2800140400201C0400201C040020240400208A
:103E380024040020FFFFFFFF00000200700D002097
:103E48004404002000000000000000000000000002
:103E5800000000000000000000000000000000005A
:103E6800000000000000000000000000000000004A
:103E7800000000000000000000000000000000003A
:103E8800000000000000000000000000000000002A
:103E9800000000000000000000000000000000001A
:103EA800000000000000000000000000000000000A
:103EB80000000000000000000000000000000000FA
:103EC80000000000000000000000000000000000EA
:103ED80000000000000000000000000000000000DA
:103EE80000000000000000000000000000000000CA
:103EF80000000000000000000000000000000000BA
:103F080000000000000000000000000000000000A9
:103F18000000000000000000000000000000000099
:103F28000000000000000000000000000000000089
:043F38000000000085
:0400000508002F2D93
:00000001FF
